:020000040000FA
:100000000C9468000C9490000C9490000C94900058
:100010000C9490000C9490000C9490000C94900020
:100020000C9490000C9490000C9490000C94900010
:100030000C9490000C9490000C9490000C94900000
:100040000C9425060C9490000C94F3050C94CD05AB
:100050000C9490000C9490000C9490000C949000E0
:100060000C946F060C9490006364696E6F707375E6
:1000700078585B0000000000250028002B000000DD
:1000800000002300260029000000000800020100F3
:100090000003040700000000000000000000000052
:1000A000240027002A0001020408102040800102D9
:1000B00004081020010204081020040404040404AD
:1000C0000404020202020202030303030303F7090A
:1000D00011241FBECFEFD8E0DEBFCDBF23E0A4E5E3
:1000E000B1E001C01D92AC3EB207E1F711E0A0E023
:1000F000B1E0E0EAF1E302C005900D92A435B1074A
:10010000D9F710E0C8E6D0E004C02197FE010E94B4
:100110001E11C736D107C9F70E94300A0C94CE18B9
:100120000C9400000895CF93DF93EC01E091C70297
:10013000F091C8023097F1F09091C5028091C4020D
:100140009817C0F090E0292F30E02617370754F4B5
:10015000DE01A20FB31F4C912B5E3C4FD9014C9393
:100160009F5FF1CF1092C5026093C402CB01DF9173
:10017000CF910994DF91CF9108950895AF92BF92E6
:10018000CF92DF92EF92FF920F931F93CF93DF9363
:100190006C017B018B01040F151FEB015E01AE1892
:1001A000BF08C017D10759F06991D601ED91FC91B4
:1001B0000190F081E02DC6010995892B79F7C501E1
:1001C000DF91CF911F910F91FF90EF90DF90CF9033
:1001D000BF90AF900895FC01538D448D252F30E0E2
:1001E000842F90E0821B930B541710F0CF96089544
:1001F00001970895FC01918D828D981761F0A28D71
:10020000AE0FBF2FB11D5D968C91928D9F5F9F7336
:10021000928F90E008958FEF9FEF0895FC01918DEC
:10022000828D981731F0828DE80FF11D858D90E059
:1002300008958FEF9FEF0895FC01918D228D892FF6
:1002400090E0805C9F4F821B91098F7399270895DE
:100250008FE393E00E941C0121E0892B09F420E048
:10026000822F089580E090E0892B29F00E942801D8
:1002700081110C9400000895FC01A48DA80FB92FE2
:10028000B11DA35ABF4F2C91848D90E001968F73BE
:100290009927848FA689B7892C93A089B1898C91DD
:1002A000837080648C93938D848D981306C002882C
:1002B000F389E02D80818F7D80830895EF92FF92F6
:1002C0000F931F93CF93DF93EC0181E0888F9B8D79
:1002D0008C8D98131AC0E889F989808185FF15C033
:1002E0009FB7F894EE89FF896083E889F989808156
:1002F0008370806480839FBF81E090E0DF91CF9125
:100300001F910F91FF90EF900895F62E0B8D10E046
:100310000F5F1F4F0F731127E02E8C8D8E110CC0B5
:100320000FB607FCFACFE889F989808185FFF5CF00
:10033000CE010E943C01F1CFEB8DEC0FFD2FF11DA2
:10034000E35AFF4FF0829FB7F8940B8FEA89FB893D
:1003500080818062CFCF682F8FE393E00C945E01A1
:10036000CF93DF93EC01888D8823B9F0AA89BB89EC
:10037000E889F9898C9185FD03C0808186FD0DC0D7
:100380000FB607FCF7CF8C9185FFF2CF808185FFF8
:10039000EDCFCE010E943C01E9CFDF91CF910895CE
:1003A000833081F028F4813099F08230A9F00895EB
:1003B0008730A9F08830C9F08430B1F48091800092
:1003C0008F7D03C0809180008F7780938000089597
:1003D00084B58F7784BD089584B58F7DFBCF8091E0
:1003E000B0008F778093B00008958091B0008F7D2A
:1003F000F9CF1F93CF93DF93282F30E0F901E8570F
:10040000FF4F8491F901EA55FF4FD491F901E65469
:10041000FF4FC491CC23A9F0162F81110E94D00167
:10042000EC2FF0E0EE0FFF1FEC58FF4FA591B491B9
:100430008FB7F894EC91111108C0D095DE23DC93AE
:100440008FBFDF91CF911F910895DE2BF8CFCF930F
:10045000DF9390E0FC01EA55FF4F249186549F4FB3
:10046000FC0184918823D1F090E0880F991FFC0152
:10047000E456FF4FA591B491FC01EC58FF4FC59194
:10048000D49161110EC09FB7F8948C91E22FE09542
:100490008E238C932881E223E8839FBFDF91CF9145
:1004A00008958FB7F894EC91E22BEC938FBFF6CFC1
:1004B0003FB7F89480919C0190919D01A0919E017D
:1004C000B0919F0126B5A89B05C02F3F19F001965A
:1004D000A11DB11D3FBFBA2FA92F982F8827BC019E
:1004E000CD01620F711D811D911D42E0660F771FC6
:1004F000881F991F4A95D1F708958F929F92AF92C6
:10050000BF92CF92DF92EF92FF924B015C010E946B
:1005100058026B017C010E9458026C197D098E09FA
:100520009F09683E734081059105A8F321E0821A76
:100530009108A108B10888EEC80E83E0D81EE11C1E
:10054000F11C81149104A104B10429F7FF90EF90EC
:10055000DF90CF90BF90AF909F908F9008951F93A2
:10056000CF93DF93182FC3E0D0E061E0812F0E948A
:10057000F9016EE170E080E090E00E947D0260E0B1
:10058000812F0E94F9016EE170E080E090E00E940E
:100590007D02219751F7DF91CF911F91089520910E
:1005A0007801260F3327331F21323105ECF42091D7
:1005B0003503FC0190E080E0243069F082E008958A
:1005C000A09178012191AC01485A5E4FA40FB52F3C
:1005D000B11D2C930196861798F380917801680FCE
:1005E0006093780180E0089581E0089510923503CA
:1005F00081E08093140310920F0361E082E10E9476
:10060000F90161E083E10E94F901E9EBF0E080810A
:100610008E7F808380818D7F808388E48093B80083
:1006200085E48093BC000895CF93DF9391E090938D
:10063000C6028823B9F0C091B800D091BA00809169
:10064000BC008A7B8093BC0060E082E10E94F901DB
:1006500060E083E10E94F9010E94F602D093BA00A3
:10066000C093B800DF91CF9108950895E091C5023D
:100670008091C402E81730F4F0E0EB5EFC4F80811B
:1006800090E008958FEF9FEF08959091C5028091BB
:10069000C4022FEF3FEF981748F4E92FF0E0EB5E2C
:1006A000FC4F208130E09F5F9093C502C9010895FF
:1006B0008091C4029091C502891B990B0895CF9235
:1006C000DF92EF92FF920F931F93CF93DF937C0102
:1006D000CB018A012091CB02222389F0EB016B012F
:1006E000C40ED51ECC15DD0569F06991D701ED91D9
:1006F000FC910190F081E02DC7010995F3CF642FA3
:100700000E94CF02C801DF91CF911F910F91FF90FE
:10071000EF90DF90CF900895CF93DF931F92CDB7E6
:10072000DEB769832091CB022223F9F02091EE02FB
:10073000203258F021E030E0FC013383228390E046
:1007400080E00F90DF91CF9108958091CC02E82F47
:10075000F0E0E353FD4F998190838F5F8093CC024B
:100760008093EE0281E090E0ECCF61E0CE01019653
:100770000E94CF02F7CF90E080E008958091B80208
:100780009091B90201969093B9028093B80285E1E5
:100790000C94AB012091AB013091AC018091B60279
:1007A0009091B7022032310511F4807F08952034F2
:1007B000310511F4807E08952038310511F4807CD4
:1007C00008952115314009F4807808958FE393E06E
:1007D0000E941C01892BD1F38FE393E00E94FA0061
:1007E0000895CF93C82F0E94E603803251F484E12C
:1007F0000E94AB018C2F0E94AB0180E1CF910C9441
:10080000AB018091B8029091B90201969093B90220
:100810008093B80285E1F2CF0E94E603803231F482
:1008200084E10E94AB0180E10C94AB018091B8029D
:100830009091B90201969093B9028093B80285E134
:10084000F3CF0F931F93CF93DF938C01C3EBD1E0D2
:10085000CE01835B91408017910724F40E94E60348
:100860008993F6CFDF91CF911F910F9108950F9348
:100870001F93CF93DF932FB7F89480913B03909110
:100880003C03A0913D03B0913E032FBF4091540122
:100890005091550160915601709157018C019D0155
:1008A000041B150B260B370BB901A8014832510563
:1008B0006105710508F44DC0809354019093550172
:1008C000A0935601B09357018091010190910001CE
:1008D000813C20F091959093000102C08032D0F3CA
:1008E000C0910001C80FC093010161E089E00E943E
:1008F0002702C11108C060E089E0DF91CF911F910C
:100900000F910C94F901CF3F11F461E0F5CFE1E9CB
:10091000F0E0E491E33039F138F4E130B1F0E23065
:10092000E9F0C7FDF2CFE7CFE73041F1E83071F1F0
:10093000E430B9F780918000806280938000D0E03D
:10094000D0938B00C0938A0004C084B5806884BDB6
:10095000C7BDDF91CF911F910F91089584B580623B
:1009600084BDC8BDF6CF80918000806880938000F0
:10097000D0E0D0938900C0938800EBCF8091B00085
:1009800080688093B000C093B300E3CF8091B00043
:1009900080628093B000C093B400DBCF8EBD0000B6
:1009A0000DB407FEFDCF8EB508951F93CF93DF934F
:1009B000162FD42FC22F0E94CE04812F0E94CE0466
:1009C0008D2F0E94CE048C2FDF91CF911F910C941C
:1009D000CE04EF92FF920F931F93CF93DF93EC011E
:1009E0008B01CB010E94210460E087E00E94F901A5
:1009F00083EBE82E81E0F82E0C0F1D1FC017D107E6
:100A000081F0F70121917F014C2F6D2F80EC0E9426
:100A1000D5046DE270E080E090E00E947D022196B6
:100A2000EDCF61E087E00E94F90180E1DF91CF9195
:100A30001F910F91FF90EF900895CF93DF93D82FE0
:100A4000C92F60E087E00E94F90120E04D2F6C2F54
:100A50008CE40E94D5046EE170E080E090E00E949A
:100A60007D0261E087E0DF91CF910C94F90185ED83
:100A70008093BC008091370390913803A091390393
:100A8000B0913A030796A11DB11D23E0B695A79535
:100A9000979587952A95D1F72091BC0024FD03C036
:100AA00010923503089540913703509138036091B7
:100AB000390370913A03452B462B472B69F3009776
:100AC000A105B10541F02AE22A95F1F700C001978E
:100AD000A109B109E1CF809136030C9414038F92E0
:100AE0009F92AF92BF92CF92DF92FF920F931F938C
:100AF000CF93DF93CDB7DEB7A1970FB6F894DEBFE3
:100B00000FBECDBF6C01F12C8AE0882E912CA12C58
:100B1000B12CFC141D047CF58CED93E00E94450380
:100B20009091BF02992329F1282F30E050E040E056
:100B300019A28E010F5D1F4FCA01B901A5019401D1
:100B40000E94FC10605DF80162938F012115310550
:100B50004105510589F7309761F001900020E9F7D0
:100B60003197AF01401B510BB8018FE393E00E9416
:100B7000BE00F394CECFA1960FB6F894DEBF0FBEA1
:100B8000CDBFDF91CF911F910F91FF90DF90CF905C
:100B9000BF90AF909F908F9008951F920F920FB6C5
:100BA0000F9211242F933F934F935F936F937F93F3
:100BB0008F939F93AF93BF93EF93FF938FE393E054
:100BC0000E943C01FF91EF91BF91AF919F918F9156
:100BD0007F916F915F914F913F912F910F900FBE39
:100BE0000F901F9018951F920F920FB60F9211241D
:100BF0002F938F939F93EF93FF93E0914F03F09187
:100C000050038081E0915503F091560382FD1BC093
:100C10009081809158038F5F8F73209159038217C1
:100C200041F0E0915803F0E0E15CFC4F958F809338
:100C30005803FF91EF919F918F912F910F900FBECD
:100C40000F901F9018958081F4CF1F920F920FB6CE
:100C50000F9211242F933F938F939F93AF93BF9342
:100C600080913B0390913C03A0913D03B0913E03E2
:100C700030919B0123E0230F2D3758F50196A11DDC
:100C8000B11D20939B0180933B0390933C03A09361
:100C90003D03B0933E0380919C0190919D01A091F2
:100CA0009E01B0919F010196A11DB11D80939C01F1
:100CB00090939D01A0939E01B0939F01BF91AF912E
:100CC0009F918F913F912F910F900FBE0F901F908A
:100CD000189526E8230F0296A11DB11DD2CF1F92B1
:100CE0000F920FB60F9211242F933F934F935F9360
:100CF0006F937F938F939F93AF93BF93EF93FF93E4
:100D00008091B900887F803609F44AC0F0F58832B6
:100D100009F4A7C018F5803109F49BC0B8F4882302
:100D200009F4F9C0883009F494C0FF91EF91BF91A4
:100D3000AF919F918F917F916F915F914F913F9173
:100D40002F910F900FBE0F901F901895883109F4C6
:100D500088C0803251F78093130314C0803409F4A3
:100D60009DC040F48033B9F38833F9F680931303C0
:100D700085ECB0C0803509F485C0883509F496C08B
:100D8000883499F60E943705D0CF883909F48CC091
:100D900038F5883729F050F4883611F0803729F675
:100DA00083E08093350310929A0157C0883809F484
:100DB0007BC0803919F0803809F0B7CF80919A0153
:100DC000803208F071C0E0919A0181E08E0F80932B
:100DD0009A018091BB00F0E0E658FE4F80833DC051
:100DE000803B39F0E0F4803A09F479C0883A09F0A0
:100DF0009CCF84E0809335031092790110927801A2
:100E0000E091C202F091C3020995809178018111AD
:100E10000FC081E0809378011092580109C0803C96
:100E200009F4A6CF883C09F4A3CF883B09F07DCF15
:100E3000E091790181E08E0F80937901F0E0E85A2A
:100E4000FE4F80818093BB00909179018091780161
:100E500029C0809110038093BB0085EC8093BC0077
:100E600064CF9091120380911103981758F5E09187
:100E7000120381E08E0F80931203F0E0E151FD4FE9
:100E80008081E9CFE091120381E08E0F80931203FD
:100E90008091BB00F0E0E151FD4F808390911203FF
:100EA000809111039817C8F285E8D8CFE09112031A
:100EB00081E08E0F809312038091BB00F0E0E1513E
:100EC000FD4F80838091140381115CCF81E080937A
:100ED0000F0384EA8093BC001092350326CF85EC83
:100EE0008093BC001092350380919A01803230F4D7
:100EF000E0919A01F0E0E658FE4F108260919A016D
:100F000070E0E091C002F091C1028AE791E009959A
:100F100010929A010ACF1092130334CF2FB7F8948E
:100F200080913B0390913C03A0913D03B0913E031F
:100F30002FBF8093470390934803A0934903B09336
:100F40004A038FE393E00E94FA0097FF26C02FB771
:100F5000F89480913B0390913C03A0913D03B091A4
:100F60003E032FBF409147035091480360914903CE
:100F700070914A03841B950BA60BB70B409143035A
:100F8000509144036091450370914603841795077F
:100F9000A607B707B0F28FEF9FEF0895CF92DF92C9
:100FA000EF92FF920F931F93CF93DF93D82FC62F0B
:100FB000613208F098C00E9458026B017C01809158
:100FC000350381116BC081E0809335038093140356
:100FD0009FEF90931303109212039C0F90931103B1
:100FE0008093100380911003DD0FD82BD093100352
:100FF00080910F03813009F078C010920F030E9496
:1010000058026B017C01809110038093BB0080919A
:10101000370390913803A0913903B0913A03892B9B
:101020008A2B8B2BA1F00E9458020091370310915C
:1010300038032091390330913A036C197D098E09E8
:101040009F09061717072807390708F448C0809139
:10105000BC0083FDD8CF85EC8093BC000E94580271
:101060006B017C0180913503813009F440C080918F
:1010700012038C1710F4C0911203EFEEF2E0A5E119
:10108000B3E080E08C1355C08C2FDF91CF911F917E
:101090000F91FF90EF90DF90CF90089580913703EC
:1010A00090913803A0913903B0913A03892B8A2B90
:1010B0008B2B09F484CF0E945802009137031091C2
:1010C00038032091390330913A036C197D098E0958
:1010D0009F09061717072807390708F070CF809176
:1010E00036030E941403C0E0CFCF85EEB5CF8091C8
:1010F000370390913803A0913903B0913A03892BBB
:101100008A2B8B2B09F4AECF0E9458020091370333
:10111000109138032091390330913A036C197D09FD
:101120008E099F09061717072807390708F09ACF75
:10113000D6CF91919D938F5FA5CF8F929F92AF92C3
:10114000BF92CF92DF92EF92FF920F931F93CF93B4
:10115000DF93D091EE02D13208F0D7C0182FC091A2
:10116000ED020E9458026B017C01809135038111D0
:101170006BC082E080933503109314038FEF80934C
:10118000130310921203D0931103ADECB2E0EFEE13
:10119000F2E080E0D81391C0109210038091100308
:1011A000CC0FC82BC093100380910F03813009F03E
:1011B00088C010920F030E9458026B017C0180913D
:1011C00010038093BB008091370390913803A09166
:1011D0003903B0913A03892B8A2B8B2BA1F00E9403
:1011E0005802009137031091380320913903309150
:1011F0003A036C197D098E099F09061717072807FE
:10120000390708F442C08091BC0083FDD8CF85EC3B
:101210008093BC000E9458026B017C0180913503D1
:10122000823009F450C0809113038F3F09F46FC0DE
:1012300080911303803209F46CC0809113038033D2
:1012400009F469C084E026C0809137039091380387
:10125000A0913903B0913A03892B8A2B8B2B09F487
:1012600084CF0E9458028090370390903803A0905A
:101270003903B0903A036C197D098E099F098616CF
:101280009706A806B90608F070CF809136030E9431
:10129000140385E01092CC021092EE021092CB0261
:1012A000DF91CF911F910F91FF90EF90DF90CF9042
:1012B000BF90AF909F908F9008959D9191938F5F75
:1012C00069CF85EEA5CF8091370390913803A09127
:1012D0003903B0913A03892B8A2B8B2B09F49ECFCB
:1012E0000E9458020091370310913803209139036E
:1012F00030913A036C197D098E099F09061717076B
:101300002807390708F08ACFC0CF81E0C3CF80E03B
:10131000C1CF82E0BFCF83E0BDCF0F931F93CF93A8
:10132000DF93EC0188819981009759F02A813B81F4
:101330002617370730F081E0DF91CF911F910F9191
:1013400008958B016F5F7F4F0E944912009759F0FB
:10135000998388831B830A832C813D81232B59F732
:10136000FC011082E8CF80E0E7CF0F931F93CF936B
:10137000DF93CDB7DEB769970FB6F894DEBF0FBE27
:10138000CDBF1F930F933F932F935F934F937F9303
:101390006F93282F082E000C330B3F938F938CE212
:1013A00091E09F938F938E010F5F1F4F1F930F93B9
:1013B0000E942513F80101900020E9F73197AF0151
:1013C000401B510BB8018FE393E00E94BE000FB6A3
:1013D000F894DEBF0FBECDBF69960FB6F894DEBF9E
:1013E0000FBECDBFDF91CF911F910F910895EFE315
:1013F000F3E01382128288EE93E0A0E0B0E08483F1
:101400009583A683B7832CE031E03183208325ECDC
:1014100030E03587248724EC30E03787268720ECBE
:1014200030E0318B208B21EC30E0338B228B22ECAF
:1014300030E0358B248B26EC30E0378B268B118EF9
:10144000128E138E148EECEDF3E0138212828483DD
:101450009583A683B7838EE191E09183808308957D
:10146000CF93DF93CDB7DEB7A4970FB6F894DEBF66
:101470000FBECDBF789484B5826084BD84B5816091
:1014800084BD85B5826085BD85B5816085BD80914F
:101490006E00816080936E001092810080918100C7
:1014A00082608093810080918100816080938100BF
:1014B000809180008160809380008091B100846081
:1014C0008093B1008091B00081608093B0008091E2
:1014D0007A00846080937A0080917A0082608093A1
:1014E0007A0080917A00816080937A0080917A00FE
:1014F000806880937A001092C10061E086E00E94CB
:10150000270261E085E00E942702EBE8F0E0849189
:10151000E9EAF0E00491EDEBF0E01491112309F415
:10152000B9C081110E94D001E12FF0E0EE0FFF1F42
:10153000E258FF4FA591B491EC910E2309F4AAC093
:1015400081E090E09093CA028093C9028091C90221
:101550009091CA02009709F05DC361E086E00E94A5
:10156000F901E0914F03F091500382E08083E09114
:101570004B03F0914C031082E0914D03F0914E0328
:1015800087E6808310925703E0915303F091540350
:1015900086E08083E0915103F09152038081806165
:1015A0008083E0915103F0915203808188608083B1
:1015B000E0915103F0915203808180688083E09133
:1015C0005103F091520380818F7D808361E087E039
:1015D0000E94270287E090E00E94AF0261E088E06D
:1015E0000E94270288E090E00E94AF0261E089E05B
:1015F0000E94270289E090E00E94AF024BE8642E2F
:101600007724739488248394912C64EC262E60E0D4
:10161000362E70EB472E70E0572E0091BA021091D3
:10162000BB0261E00115110509F460E087E00E944A
:10163000F901E090B802F090B90261E0E114F10420
:1016400009F460E088E00E94F9010E9437048FE30A
:1016500093E00E941C01892B01F30E94E60381356F
:1016600009F477C208F0A7C0813409F435C1B8F491
:10167000803309F418C1813309F41CC1803209F0A8
:10168000BBC22FEFE21AF20AF092B902E092B8025E
:1016900085E1EBC11092CA021092C90257CF85347E
:1016A00009F431C1803509F433C1823409F0A4C290
:1016B00084E190E00E9421042091B3012093A001D5
:1016C0008091B4018093A1018091B5018093A20122
:1016D0008091B6018093A3018091B7018093A4010A
:1016E0008091B8018093A5018091B9018093A601F2
:1016F0008091BA018093A7018091BB018093A801DA
:101700008091BD0190E0982F88273091BE01830F12
:10171000911D9093AA018093A9018091BF0190E04F
:10172000982F88273091C001830F911D9093AC01B1
:101730008093AB018091C10190E0982F8827309170
:10174000C201830F911D9093AE018093AD018091F2
:10175000C30190E0B0E0A0E0BA2FA92F982F88270E
:101760003091C401830F911DA11DB11DDC0199278A
:1017700088274091C50150E0542F4427052E000CC6
:10178000660B770B840F951FA61FB71F3091C601FC
:10179000830F911DA11DB11D8093AF019093B001E6
:1017A000A093B101B093B20181E0203E08F480E043
:1017B0008093B5027CC0813609F422C1C0F486351D
:1017C00009F4B8C1803609F419C1853509F014C28D
:1017D0000E94E603182F0E94E60390E0982F8827C6
:1017E000810F911D9093B7028093B60260C0843739
:1017F00009F447C1853709F4DBC1843609F0FCC11F
:101800000E94E603082F10E0102F00270E94E60335
:10181000080F111D0E94E603863409F0F8C0C801C4
:101820000E9421040E94E6033FEFE31AF30A80328C
:1018300009F02ACF84E10E94AB010E94CA035C0137
:1018400033EBC32E31E0D32EC601835B914080176A
:1018500091070CF0D8C00E94CA038A159B0531F08D
:10186000C5010E941D050E94CA035C01E090B602FA
:10187000F090B702F60120814E2D6F2D80E40E947A
:10188000D504F60121814E2D6F2D88E40E94D504E8
:10189000FFEFEF1AFF0AF092B702E092B60222E0E1
:1018A000C20ED11CD1CF1092B9021092B8020E9480
:1018B0000C04B3CE0E94E603803209F0E2CE84E14C
:1018C0000E94AB0147E050E06DE371E08FE393E0ED
:1018D0000E94BE0080E1C9C00E94E603813879F011
:1018E00020F4803841F080E007C0823851F083391D
:1018F000D1F783E501C082E00E94F1038ECE81E042
:10190000FBCF82E1F9CF85E090E00E942104CFCFA8
:10191000012B69F66091B5028AE00E94F90161E04D
:101920008AE00E9427021FB7F8948091B4028111C7
:1019300025C0F1018491F2019491E82FF0E0EE0FBF
:10194000FF1FE456FF4FA591B4918C91982321F489
:1019500061E08AE00E94F90161E08AE00E942702CA
:101960008CB580618CBD8CB580648CBD61E08DE0F0
:101970000E94270261E08BE00E9427028091B4025E
:101980008F5F8093B4021FBF8091B302882351F010
:101990008FB7F8949091B302913021F49DB39DB329
:1019A0009DBB8FBF83E58CBD1DBC60E08DE00E94B8
:1019B000F90164E170E080E090E00E947D02109106
:1019C000B50261E061278AE00E94F901C301019735
:1019D000F1F7612F8AE00E94F90162E370E080E094
:1019E00090E00E947D0220E040E063E58CEA0E94E6
:1019F000D5049092BB028092BA0259CF0E94E603AE
:101A00000E94E60354CFC5010E941D0563CF8534B3
:101A100009F08EC08091AD019091AE0180179107C1
:101A2000A0F0E090B602F090B702EE0CFF1C01327D
:101A30001105F0F060E270E0C7010E94E90490E255
:101A4000E90EF11C00521109F2CF8FEFE81AF80AE3
:101A5000F092B902E092B80211E10E94E6038032EE
:101A600069F484E10E94AB01812F0E94AB01D5CDC6
:101A7000B801C7010E94E90410E1EFCF0E94BE0344
:101A8000CCCD0E94E603E82E0E94E603D82E0E94E9
:101A9000E603082F0E94E603803219F00E94BE037D
:101AA000BCCDF12CFE2CEE24ED0CF11C84E10E9447
:101AB000AB01063421F5D12CC12CCE14DF040CF07F
:101AC00009CF0091B6021091B70220E0402F612F9C
:101AD00080E20E94D5040E94AB0120E0402F612FDC
:101AE00088E20E94D5040E94AB010F5F1F4F109344
:101AF000B7020093B602E2E0CE0ED11CDECF053471
:101B0000B9F40091B6021091B702000F111FE00E58
:101B1000F11E0E151F0509F4DDCE2FEF402F612FAA
:101B200080EA0E94D5040E94AB010F5F1F4FF1CFE6
:101B300081E19BCF84E090E00E9421042091B601D6
:101B40004091B5016091B4018091B3010E94D50428
:101B5000D3CE1092B9021092B8029FB7F894809138
:101B6000B402882319F081508093B4028091B402AA
:101B7000811105C08CB58F7B8CBD1092B3029FBFC5
:101B800060E08BE00E94270260E08DE00E94270267
:101B90006091B50281E068278AE00E94F90160E067
:101BA0008AE00E9427021092BB021092BA027FCEF6
:101BB0000E94E603FFEFEF1AFF0A803209F064CDBE
:101BC00084E10E94AB0120E040E060E080E30E94FD
:101BD000D5040E94AB0120E041E060E080E30E9478
:101BE000D5040E94AB0120E042E060E080E30E9467
:101BF000D5040E94AB016ECE3FEFE31AF30AF092D8
:101C0000B902E092B8020E94E603803209F040CDAA
:101C100082E12BCF00E010E0019709F0A0C261E063
:101C200085E00E94F901E0914F03F091500382E0BA
:101C30008083E0914B03F0914C031082E0914D03BF
:101C4000F0914E0383E0808310925703E091530399
:101C5000F091540386E08083E0915103F0915203A8
:101C6000808180618083E0915103F09152038081F3
:101C700088608083E0915103F091520380818068F5
:101C80008083E0915103F091520380818F7D8083A6
:101C90001092C5021092C4021092CC021092EE0271
:101CA0000E94F60282E990E09093C3028093C20200
:101CB00083E990E09093C1028093C0021092BA0031
:101CC0008CE08093B8001092C60280ED97E0A0E00F
:101CD000B0E08093370390933803A0933903B09317
:101CE0003A0381E0809336038FE695E09093C80233
:101CF0008093C7023E0185E1680E711C6E019AE176
:101D0000C90ED11C5E01E8E1AE0EB11C4E01F6E138
:101D10008F0E911C9E012F5F3F4F79010E94370467
:101D20008FE393E00E941C01892BC1F31D8E1C8E52
:101D30001F8E1E8E19A218A270E060E0CE014C9694
:101D40000E948D092C8D3D8D811148C021153105D2
:101D500019F0C9010E94C0111D8E1C8E19A218A273
:101D60001F8E1E8E1A8219821C821B821E821D8269
:101D700070E060E0C7010E948D0929813A818111DC
:101D800035C02115310519F0C9010E94C0111A8210
:101D900019821E821D821C821B820E948E0797FD63
:101DA0002DC08E33910551F18AA31BA20D811E8196
:101DB0000F5F1F4FB801C7010E948D09882369F387
:101DC00029813A818D819E81BE016E5D7F4F820F98
:101DD000931F0E940F131E830D83DFCF19A218A239
:101DE00062E571E0C9010E940F13BCCF1E821D8203
:101DF00062E571E0C9010E940F13CFCF8C8D9D8DDC
:101E0000009709F45BC069817A816115710509F455
:101E100053C04E8D5F8D2D813E814217530708F4CC
:101E20004BC00E940F138D819E8199A388A31E82AF
:101E30001D8289819A81009711F00E94C01108A12A
:101E400019A10115110509F04AC0198289811FEFF6
:101E50008C33B1F4DF92CF92BF92AF929F928F9268
:101E60007F926F9285E491E09F938F93FF92EF9220
:101E70000E9448130FB6F894DEBF0FBECDBF10E02E
:101E80008C8D9D8D009711F00E94C011111146CFCD
:101E90008D89873509F4F6C094F5833409F46EC052
:101EA000823509F492C00FEF1FEF2FEF3FEF4FEF96
:101EB0005FEF6FEF7FEF44C00E94C01189819A816C
:101EC0009D8F8C8F8B819C819F8F8E8F8D819E812A
:101ED00099A388A31A8219821C821B82A8CF03317E
:101EE000110510F003E110E06C8D7D8DA801C70194
:101EF0000E941613F701E00FF11F1082A7CF83375E
:101F000011F18637A1F0823671F66E897F896115ED
:101F1000710509F421C181E08093BF024091BF02A5
:101F200050E001E010E030E020E082E609C001E08E
:101F300010E030E020E043E050E070E060E086E751
:101F40000E94B509E7CE8E8991E09093CB028093F1
:101F5000ED021092CC021092EE0281E00E949D08E8
:101F60006E897F8901E010E0882311F00FEF1FEFE9
:101F700030E020E050E040E08D89E2CF1A8D688D9E
:101F80008E8991E09093CB028093ED021092CC0267
:101F90001092EE028CED93E00E948C03612F8CED89
:101FA00093E00E948C0381E00E949D0801E0811172
:101FB00001C000E00195002E000C110B2A8D3B8D15
:101FC000488D598D6E897F89D7CFE88C698D0E2D0C
:101FD000162FFE88789481E08093CB02F092ED0278
:101FE0001092CC021092EE028CED93E00E948C03D2
:101FF0006E2D8CED93E00E948C0361E88CED93E0F4
:102000000E948C0381E00E949D08811132C08FE8FC
:1020100091E00197F1F700C0000063E08F2D0E946E
:10202000CE071092C5028093C4028CED93E00E940B
:102030004503F82E8CED93E00E9445033F2C212CA4
:102040007101E80EF11CF092BD02E092BC028CED31
:1020500093E00E9445038093BE020E151F0549F4CC
:102060009C013327488D598D6E897F8901E010E0EE
:1020700083CF488D598D6E897F890FEF1FEF2FEF2A
:102080003FEF7ACF9A8D9CA3088D698DE02EF62EB6
:102090001E89789481E08093CB021093ED02109218
:1020A000CC021092EE0260688CED93E00E948C03EB
:1020B000602F8CED93E00E948C036CA18CED93E07B
:1020C0000E948C0381E00E949D08882391F02FEFED
:1020D0003FEF488D598D6E897F898D89EA8DFB8D03
:1020E00001E010E0E217F30709F42ACF0FEF1FEF2A
:1020F00027CFEFE1FEE43197F1F700C0000063E085
:10210000812F0E94CE071092C5028093C4028CEDED
:1021100093E00E944503182F8CED93E00E94450345
:10212000512E412C8201080F111D8CED93E00E946D
:1021300045038093BE021F771093BD020093BC023B
:10214000E016F10621F6FCA1F81303C09C01332729
:10215000C0CF2EEF3FEFBDCF1092BF02DFCE0115F3
:102160001105E9F30E9428018823C9F30E940000A9
:10217000F6CF91110C94C210803219F0895085501D
:10218000C8F708959927882708952F923F924F9274
:102190005F926F927F928F929F92AF92BF92CF92F7
:1021A000DF92EF92FF920F931F93CF93DF93CDB700
:1021B000DEB7CA1BDB0B0FB6F894DEBF0FBECDBF78
:1021C00009942A88398848885F846E847D848C8449
:1021D0009B84AA84B984C884DF80EE80FD800C8152
:1021E0001B81AA81B981CE0FD11D0FB6F894DEBF35
:1021F0000FBECDBFED010895A1E21A2EAA1BBB1B95
:10220000FD010DC0AA1FBB1FEE1FFF1FA217B307C2
:10221000E407F50720F0A21BB30BE40BF50B661FD8
:10222000771F881F991F1A9469F76095709580959C
:1022300090959B01AC01BD01CF010895EE0FFF1FEA
:102240000590F491E02D09940F931F93CF93DF93A2
:102250008230910510F482E090E0E091EA03F09181
:10226000EB0330E020E0B0E0A0E0309799F42115D6
:10227000310509F44AC0281B390B24303105D8F543
:102280008A819B816115710589F1FB0193838283AA
:10229000FE0111C040815181028113814817590705
:1022A000E0F04817590799F4109761F012960C93D3
:1022B000129713961C933296CF01DF91CF911F9105
:1022C0000F9108950093EA031093EB03F4CF2115C7
:1022D000310551F04217530738F0A901DB019A018B
:1022E000BD01DF01F801C1CFEF01F9CF9093EB03FE
:1022F0008093EA03CDCFFE01E20FF31F8193919308
:102300002250310939832883D7CF2091E8033091B7
:10231000E903232B41F4209104013091050130930E
:10232000E9032093E8032091020130910301211574
:10233000310541F42DB73EB7409106015091070198
:10234000241B350BE091E803F091E903E217F30752
:10235000A0F42E1B3F0B2817390778F0AC014E5F15
:102360005F4F2417350748F04E0F5F1F5093E90366
:102370004093E803819391939FCFF0E0E0E09CCFFE
:10238000CF93DF930097E9F0FC013297138212821A
:10239000A091EA03B091EB03ED0130E020E010974B
:1023A000A1F420813181820F931F2091E8033091A5
:1023B000E9032817390709F061C0F093E903E093B6
:1023C000E803DF91CF910895EA01CE17DF07E8F522
:1023D0004A815B819E0141155105B1F7E901FB83FB
:1023E000EA8349915991C40FD51FEC17FD0761F499
:1023F000808191810296840F951FE90199838883DA
:10240000828193819B838A83F0E0E0E012968D9134
:102410009C9113970097B9F52D913C911197CD019F
:102420000296820F931F2091E8033091E903281749
:10243000390739F6309751F51092EB031092EA0301
:10244000B093E903A093E803BCCFD383C283408158
:102450005181840F951FC817D90761F44E5F5F4FF4
:1024600088819981480F591F518340838A819B81BC
:10247000938382832115310509F0B0CFF093EB03EC
:10248000E093EA039ECFFD01DC01C0CF13821282EC
:10249000D7CFB0E0A0E0EFE4F2E10C94C7108C01DC
:1024A000009751F4CB010E9424118C01C801CDB7D3
:1024B000DEB7E0E10C94E310FC01E60FF71F9C018E
:1024C00022503109E217F30708F49DC0D901CD91DC
:1024D000DC911197C617D70798F0C530D10530F3B6
:1024E000CE0104978617970708F3C61BD70B2297D0
:1024F000C193D1936D937C93CF010E94C011D6CF2D
:102500005B01AC1ABD0A4C018C0E9D1EA091EA0322
:10251000B091EB03512C412CF12CE12C109731F5AB
:102520008091E8039091E9038815990509F05CC052
:102530004616570608F058C0809102019091030199
:10254000009741F48DB79EB7409106015091070165
:10255000841B950BE817F90708F055C0F093E903C1
:10256000E093E803F90171836083A0CF8D919C9182
:10257000119712966C90129713967C901397A8154A
:10258000B90559F56C0142E0C40ED11CCA14DB0434
:1025900020F1AC014A195B09DA011296159780F017
:1025A0006282738251834083D9016D937C93E114DD
:1025B000F10471F0D7011396FC93EE93129776CF46
:1025C00022968C0F9D1FF90191838083F301EFCF39
:1025D000F093EB03E093EA0369CF4816590608F439
:1025E0002C017D01D3019ACFCB010E9424117C01E3
:1025F000009749F0AE01B8010E940613C8010E947D
:10260000C011870153CF10E000E050CFFB01DC0187
:1026100002C001900D9241505040D8F70895FB013F
:10262000DC0101900D920020E1F70895FB01DC012F
:102630004150504048F001900D920020C9F701C070
:102640001D9241505040E0F70895AEE0B0E0EBE25B
:10265000F3E10C94D3100D891E8986E08C831A83D4
:1026600009838FEF9FE79E838D83AE01475E5F4FA7
:102670006F89788DCE0101960E9461132F81388574
:10268000020F131FF80110822E96E4E00C94EF1055
:10269000AEE0B0E0EEE4F3E10C94D51085E08C837D
:1026A0008B899C899A838983AE01495E5F4F6D89CE
:1026B0007E89CE0101960E94C6162E96E2E00C9409
:1026C000F110ABE0B0E0E7E6F3E10C94C5107C015B
:1026D0003B018A01FC0117821682838181FFC8C1F8
:1026E000CE0101965C01F7019381F30193FD859181
:1026F00093FF81913F01882309F453C1853239F456
:1027000093FD859193FF81913F01853229F4B701B3
:1027100090E00E942818E7CF912C212C312CFFE16A
:10272000F31538F08B3211F190F4803209F18332D5
:1027300029F137FC3CC020ED280F2A3050F536FE39
:1027400020C08AE0989E200D1124922E06C08D3262
:1027500091F0803371F7689430F8F30193FD85911F
:1027600093FF81913F018111DACF21C0689431F844
:10277000689432F8F2CF689433F8EFCF689434F865
:10278000ECCFEAE02E9E200D1124222E689435F81D
:10279000E4CF8E3229F436FC04C1689436F8DDCFDC
:1027A0008C3619F4689437F8D8CF8836B1F2982F60
:1027B0009F7D95549330E0F08336A1F18337C1F1CA
:1027C000833509F063C02801F2E04F0E511CF80177
:1027D000C080D180692D70E036FC02C06FEF7FEFC2
:1027E000C6010E94D6174C01689437F882010AC0CE
:1027F0000C5F1F4FFFE3F98388248394912C6501BC
:10280000E89437F833FE2DC0522C8114910471F5F1
:10281000552009F468CFB70180E290E00E942818A3
:102820005A94F6CFF801808189830E5F1F4FE4CF61
:102830002801F2E04F0E511CF801C080D180692DB3
:1028400070E036FC02C06FEF7FEFC6010E94E11717
:102850004C018201D5CFB70180E290E00E94281898
:102860002A942814190409F0B0F7CECFF60137FCEA
:10287000859137FE81916F01B70190E00E94281881
:1028800051105A94F1E08F1A9108BFCF843619F095
:10289000893609F077C0F80137FE6BC0608171811D
:1028A000828193810C5F1F4FF32DFF763F2E97FFA0
:1028B00009C090958095709561957F4F8F4F9F4F80
:1028C000689437F82AE030E0A5010E947018C82EFD
:1028D000CA188C2C432C36FE0CC0E89440F8C9145E
:1028E00040F434FE05C032FC03C0F32DFE7E4F2EB3
:1028F000892C44FE95C0FE01EC0DF11D80818033D2
:1029000009F087C0242D297E422E842D8870582EF0
:1029100043FC95C040FE8FC09C2C821418F42C0CF4
:10292000922C981844FE91C0B70180E390E00E9479
:10293000281842FE09C088E790E041FE02C088E501
:1029400090E0B7010E942818C91408F48AC0CA94FC
:10295000D12C9FEFC91AD90ACA0CDB1CF60182914F
:102960006F01B70190E00E942818AC14BD04B1F7C4
:102970004FCF60817181072E000C880B990B0E5F81
:102980001F4F92CFD32CE894D4F82AE030E085375B
:1029900039F1232D297FD22E8F3601F148F4883565
:1029A000A9F0F701868197812B96E2E10C94E11062
:1029B000803749F08837A9F7D4FE02C06894D2F86E
:1029C00020E130E00DC06894D4F8F6CF34FE03C0A7
:1029D000822F8660D82E20E132E002C028E030E06D
:1029E000F801D7FE0FC060817181828193810C5FF5
:1029F0001F4FA5010E947018C82ECA183D2CE894DC
:102A000037F867CF6081718190E080E00E5F1F4FE3
:102A1000F0CF42FC02C0839478CF8394839475CF27
:102A2000842D867809F471CFF6CFB70180E290E06B
:102A30000E94281883948214C0F3512C73CF522C17
:102A40005818821408F46ECFF8CF842D867809F4D4
:102A50007BCF8BE241FE80E247FC8DE2B70190E044
:102A600071CFB70180E390E00E9428189A946CCF50
:102A70008FEF9FEF99CF20FD09C0FC0123FD05C01A
:102A800022FF02C07383628351834083089544FD13
:102A900017C046FD1DC0DB01FC01AA0FBB1FEE1FC6
:102AA000FF1F1094D1F76A0F7B1F8E1F9F1F660FA9
:102AB000771F881F991F620F711D811D911D089539
:102AC00033E0660F771F881F991F3150D1F7F3CF7E
:102AD00034E0F7CF0F931F93CF93DF938C01C8019E
:102AE0000E94EC17EC0197FD08C00E94B910892BD9
:102AF000B1F7B801CE010E945818CE01DF91CF91F5
:102B00001F910F9108958F929F92AF92BF92EF9273
:102B1000FF920F931F93CF93DF938C01D62F7A01EF
:102B2000B22E0E94EC179C0133272B32310529F07D
:102B30002D323105A9F46894B7F8D15061F480E0E2
:102B4000DF91CF911F910F91FF90EF90BF90AF90C9
:102B50009F908F900895C8010E94EC1797FDEFCFCA
:102B6000CB2DCD7F2B2D2073F9F48033E9F4AA24EB
:102B7000AA94AD0E89F0C8010E94EC1797FD0CC015
:102B8000282F2F7D283561F4C264D25029F0C80166
:102B90000E94EC1797FF08C0812C912C54011BC098
:102BA000B6FE2BC0C260DA2D812C912C540120ED91
:102BB000280F283028F1C4FD09C02A3008F1C6FFCB
:102BC00005C02F7D3FEE320F3630C8F0B8010E94AD
:102BD0005818C1FFB4CFC7FF08C0B094A094909418
:102BE0008094811C911CA11CB11C2C2FB501A40147
:102BF000C7010E943B1581E0A3CFC261D4CF27500B
:102C00004C2FC501B4010E9447154B015C01C26005
:102C1000D15009F3C8010E94EC1797FFC8CFD9CF54
:102C2000A0E2B0E0E6E1F6E10C94CA105C01962E59
:102C30007A01CE0101966C0180E2F60111928A952B
:102C4000E9F7F501B381890130E020E0712C812C96
:102C5000A0E041E050E0F801B3FD8591B3FF819120
:102C6000982F8F01811107C010E000E0C801A096E5
:102C7000EDE00C94E6108E3519F42115310541F183
:102C8000A21713064CF48D3549F18D3229F48110C9
:102C900006C0882483941DC0882009F464C0E92FED
:102CA000E695E695E695EC0DFD2DF11D892F8770D3
:102CB000BA0101C0660F8A95EAF78081682B6083AC
:102CC000791651F0971510F49F5FE9CF9150E7CF37
:102CD000A1E02F5F3F4FBFCF812CFBCF882019F0A1
:102CE0008E8180628E83AA2359F0F6019E012F5DAA
:102CF0003F4F8081809580833196E217F307C9F7B3
:102D000088248394C5010E94EC1797FD16C0E82F14
:102D1000E695E695E695EC0DFD2DF11D208130E060
:102D2000AC014770552702C0359527954A95E2F7C3
:102D300020FD06C0B5010E945818882069F094CF84
:102D4000E114F10429F0F7018083C70101967C01A9
:102D50009A94812C9110D6CFE114F10409F486CF16
:102D6000F701108283CFE82FE695E695E695EC0D06
:102D7000FD2DF11D982F9770BA0101C0660F9A952D
:102D8000EAF79081692B6083782EA3CFB0E0A0E0B2
:102D9000ECECF6E10C94C8106C01EB015A01FC015B
:102DA00017821682512CF601E380FE01E3FC859127
:102DB000E3FE8191182FEF018823E9F090E00E9453
:102DC000B910892B21F0C6010E946A15ECCF15328B
:102DD00041F4FE01E3FC1591E3FE1191EF01153280
:102DE00069F4C6010E94EC1797FD8EC01817D9F23E
:102DF000B6010E945818852D90E08AC000E01A3272
:102E000031F4E3FC1591E3FE1191EF0101E0F12CA7
:102E100020ED210F2A3048F101FF37C0FF2059F380
:102E20001836B1F11C3609F43DC0112321F3612F8E
:102E300070E088E690E00E94CB17892BE1F2912C9C
:102E4000812C00FD06C0F50180809180C5010296AD
:102E50005C011E3679F5F6014681578170E060E02D
:102E6000202FC4010E943B159ECF02606F2D70E0A1
:102E700090E080E040E20E944715F62EFE01E3FC60
:102E80001591E3FE1191EF01C3CFFF24FA94C8CF4F
:102E9000FE01E3FC1591E3FE1191EF01183609F0F4
:102EA000C4CF08600460FE01E3FC1591E3FE1191BC
:102EB000EF01BBCF1336C1F401FD02C0FF24F39430
:102EC000C6010E94EC1797FD1FC08114910429F0E0
:102ED000F4018083C40101964C01FA94F110F0CF03
:102EE00000FD61CF53945FCF1B35B9F49E01A4015F
:102EF0006F2DC6010E941016EC01892B89F7F6018F
:102F00008381807309F477CF8FEF9FEF511073CFD8
:102F1000CDB7DEB7EFE00C94E410C6010E946A154D
:102F200097FDF2CF1F36A9F130F4143641F019366F
:102F300039F0006405C01337B9F01537D1F70062D6
:102F4000202FA4016F2DC6010E9483158111C8CFC7
:102F5000D6CF8114910429F0F4016082C401019656
:102F60004C01FA94FF2071F0C6010E94EC173C015D
:102F700097FD08C00E94B910892B59F3B601C3010F
:102F80000E9458188114910409F4AACFF401108208
:102F9000A7CF0061D5CFFC010590061621F00020D7
:102FA000D9F7C00108953197CF010895FC0105902C
:102FB000615070400110D8F7809590958E0F9F1F3B
:102FC0000895FC016150704001900110D8F7809580
:102FD00090958E0F9F1F0895CF93DF93EC012B8167
:102FE00020FF1AC026FF0CC02F7B2B838E819F8170
:102FF00001969F838E838A8190E0DF91CF9108951F
:1030000022FF18C0E881F9818081082E000C990BFD
:10301000009729F420622B838FEF9FEFEECF31963C
:10302000F983E8832E813F812F5F3F4F3F832E83BB
:103030009927E3CFEA85FB85099597FFF3CF2B818D
:10304000019621F080E2822B8B83E6CF80E1FBCFDB
:103050000F931F93CF93DF93182F092FEB018B81D1
:1030600081FD09C01FEF0FEF812F902FDF91CF91CE
:103070001F910F91089582FF14C02E813F818C8192
:103080009D81281739073CF4E881F981CF01019629
:103090009983888310838E819F8101969F838E837D
:1030A000E3CFE885F985812F0995892BA1F3DACF44
:1030B000FB01238120FF11C026FD0FC08F3F980721
:1030C00071F082832F7D20642383268137812150F4
:1030D000310937832683992708958FEF9FEF08954D
:1030E000FA01AA27283051F1203181F1E8946F9339
:1030F0006E7F6E5F7F4F8F4F9F4FAF4FB1E03ED0DF
:10310000B4E03CD0670F781F891F9A1FA11D680F7C
:10311000791F8A1F911DA11D6A0F711D811D911DAF
:10312000A11D20D009F468943F912AE0269F112424
:103130003019305D3193DEF6CF010895462F477088
:10314000405D4193B3E00FD0C9F7F6CF462F4F70E3
:10315000405D4A3318F0495D31FD4052419302D041
:10316000A9F7EACFB4E0A6959795879577956795E7
:10317000BA95C9F700976105710508959B01AC01E7
:103180000A2E06945795479537952795BA95C9F70E
:10319000620F731F841F951FA01D0895F894FFCF21
:1031A00008800000EC038000000000005E01BE000B
:1031B000EB00B0011C01FA000E01000000008C03BE
:1031C0005F03BB0335035803450336033C256320E7
:1031D00025642025642025642025643E0041565244
:1031E00020495350003C2563202564202564202578
:0431F000643E000039
:107E0000112484B714BE81FFF0D085E080938100F7
:107E100082E08093C00088E18093C10086E0809377
:107E2000C20080E18093C4008EE0C9D0259A86E02C
:107E300020E33CEF91E0309385002093840096BBD3
:107E4000B09BFECF1D9AA8958150A9F7CC24DD24C4
:107E500088248394B5E0AB2EA1E19A2EF3E0BF2EE7
:107E6000A2D0813461F49FD0082FAFD0023811F036
:107E7000013811F484E001C083E08DD089C08234E0
:107E800011F484E103C0853419F485E0A6D080C0E4
:107E9000853579F488D0E82EFF2485D0082F10E0AE
:107EA000102F00270E291F29000F111F8ED06801E7
:107EB0006FC0863521F484E090D080E0DECF843638
:107EC00009F040C070D06FD0082F6DD080E0C81688
:107ED00080E7D80618F4F601B7BEE895C0E0D1E017
:107EE00062D089930C17E1F7F0E0CF16F0E7DF06D8
:107EF00018F0F601B7BEE89568D007B600FCFDCFD4
:107F0000A601A0E0B1E02C9130E011968C91119780
:107F100090E0982F8827822B932B1296FA010C0160
:107F200087BEE89511244E5F5F4FF1E0A038BF0790
:107F300051F7F601A7BEE89507B600FCFDCF97BE46
:107F4000E89526C08437B1F42ED02DD0F82E2BD052
:107F50003CD0F601EF2C8F010F5F1F4F84911BD097
:107F6000EA94F801C1F70894C11CD11CFA94CF0C13
:107F7000D11C0EC0853739F428D08EE10CD085E9AC
:107F80000AD08FE07ACF813511F488E018D01DD067
:107F900080E101D065CF982F8091C00085FFFCCF94
:107FA0009093C60008958091C00087FFFCCF809118
:107FB000C00084FD01C0A8958091C6000895E0E648
:107FC000F0E098E1908380830895EDDF803219F02E
:107FD00088E0F5DFFFCF84E1DECF1F93182FE3DFCA
:107FE0001150E9F7F2DF1F91089580E0E8DFEE27F6
:047FF000FF270994CA
:027FFE00040479
:00000001FF
