:020000040000FA
:100000000C9468000C9490000C9490000C94900058
:100010000C9490000C9490000C9490000C94900020
:100020000C9490000C9490000C9490000C94900010
:100030000C9490000C9490000C9490000C94900000
:100040000C9460060C9490000C942E060C940806F8
:100050000C9490000C9490000C9490000C949000E0
:100060000C94AA060C9490006364696E6F707375AB
:1000700078585B0000000000250028002B000000DD
:1000800000002300260029000000000800020100F3
:100090000003040700000000000000000000000052
:1000A000240027002A0001020408102040800102D9
:1000B00004081020010204081020040404040404AD
:1000C0000404020202020202030303030303280AD8
:1000D00011241FBECFEFD8E0DEBFCDBF23E0A8E5DF
:1000E000B1E001C01D92AF3EB207E1F711E0A0E020
:1000F000B1E0EEEBF1E302C005900D92A835B10737
:10010000D9F710E0C8E6D0E004C02197FE010E94B4
:100110002D11C736D107C9F70E94610A0C94DD186A
:100120000C9400000895CF93DF93EC01E091CA0294
:10013000F091CB023097F1F09091C8028091C70204
:100140009817C0F090E0292F30E02617370754F4B5
:10015000DE01A20FB31F4C91285E3C4FD9014C9396
:100160009F5FF1CF1092C8026093C702CB01DF916D
:10017000CF910994DF91CF9108950895AF92BF92E6
:10018000CF92DF92EF92FF920F931F93CF93DF9363
:100190006C017B018B01040F151FEB015E01AE1892
:1001A000BF08C017D10759F06991D601ED91FC91B4
:1001B0000190F081E02DC6010995892B79F7C501E1
:1001C000DF91CF911F910F91FF90EF90DF90CF9033
:1001D000BF90AF900895FC01538D448D252F30E0E2
:1001E000842F90E0821B930B541710F0CF96089544
:1001F00001970895FC01918D828D981761F0A28D71
:10020000AE0FBF2FB11D5D968C91928D9F5F9F7336
:10021000928F90E008958FEF9FEF0895FC01918DEC
:10022000828D981731F0828DE80FF11D858D90E059
:1002300008958FEF9FEF0895FC01918D228D892FF6
:1002400090E0805C9F4F821B91098F7399270895DE
:1002500082E493E00E941C0121E0892B09F420E054
:10026000822F089580E090E0892B29F00E942801D8
:1002700081110C9400000895FC01A48DA80FB92FE2
:10028000B11DA35ABF4F2C91848D90E001968F73BE
:100290009927848FA689B7892C93A089B1898C91DD
:1002A000837080648C93938D848D981306C002882C
:1002B000F389E02D80818F7D80830895EF92FF92F6
:1002C0000F931F93CF93DF93EC0181E0888F9B8D79
:1002D0008C8D98131AC0E889F989808185FF15C033
:1002E0009FB7F894EE89FF896083E889F989808156
:1002F0008370806480839FBF81E090E0DF91CF9125
:100300001F910F91FF90EF900895F62E0B8D10E046
:100310000F5F1F4F0F731127E02E8C8D8E110CC0B5
:100320000FB607FCFACFE889F989808185FFF5CF00
:10033000CE010E943C01F1CFEB8DEC0FFD2FF11DA2
:10034000E35AFF4FF0829FB7F8940B8FEA89FB893D
:1003500080818062CFCF682F82E493E00C945E01AD
:10036000CF93DF93EC01888D8823B9F0AA89BB89EC
:10037000E889F9898C9185FD03C0808186FD0DC0D7
:100380000FB607FCF7CF8C9185FFF2CF808185FFF8
:10039000EDCFCE010E943C01E9CFDF91CF910895CE
:1003A000833081F028F4813099F08230A9F00895EB
:1003B0008730A9F08830C9F08430B1F48091800092
:1003C0008F7D03C0809180008F7780938000089597
:1003D00084B58F7784BD089584B58F7DFBCF8091E0
:1003E000B0008F778093B00008958091B0008F7D2A
:1003F000F9CF1F93CF93DF93282F30E0F901E8570F
:10040000FF4F8491F901EA55FF4FD491F901E65469
:10041000FF4FC491CC23A9F0162F81110E94D00167
:10042000EC2FF0E0EE0FFF1FEC58FF4FA591B491B9
:100430008FB7F894EC91111108C0D095DE23DC93AE
:100440008FBFDF91CF911F910895DE2BF8CFCF930F
:10045000DF9390E0FC01EA55FF4F249186549F4FB3
:10046000FC0184918823D1F090E0880F991FFC0152
:10047000E456FF4FA591B491FC01EC58FF4FC59194
:10048000D49161110EC09FB7F8948C91E22FE09542
:100490008E238C932881E223E8839FBFDF91CF9145
:1004A00008958FB7F894EC91E22BEC938FBFF6CFC1
:1004B0003FB7F8948091A0019091A101A091A20171
:1004C000B091A30126B5A89B05C02F3F19F0019656
:1004D000A11DB11D3FBFBA2FA92F982F8827BC019E
:1004E000CD01620F711D811D911D42E0660F771FC6
:1004F000881F991F4A95D1F708958F929F92AF92C6
:10050000BF92CF92DF92EF92FF924B015C010E946B
:1005100058026B017C010E9458026C197D098E09FA
:100520009F09683E734081059105A8F321E0821A76
:100530009108A108B10888EEC80E83E0D81EE11C1E
:10054000F11C81149104A104B10429F7FF90EF90EC
:10055000DF90CF90BF90AF909F908F9008951F93A2
:10056000CF93DF93182FC3E0D0E061E0812F0E948A
:10057000F9016EE170E080E090E00E947D0260E0B1
:10058000812F0E94F9016EE170E080E090E00E940E
:100590007D02219751F7DF91CF911F91089520910E
:1005A0007C01260F3327331F21323105ECF42091D3
:1005B0003803FC0190E080E0243069F082E0089587
:1005C000A0917C012191AC01445A5E4FA40FB52F3C
:1005D000B11D2C930196861798F380917C01680FCA
:1005E00060937C0180E0089581E0089510923803C3
:1005F00081E0809317031092120361E082E10E9470
:10060000F90161E083E10E94F901E9EBF0E080810A
:100610008E7F808380818D7F808388E48093B80083
:1006200085E48093BC000895CF93DF9391E090938D
:10063000C9028823B9F0C091B800D091BA00809166
:10064000BC008A7B8093BC0060E082E10E94F901DB
:1006500060E083E10E94F9010E94F602D093BA00A3
:10066000C093B800DF91CF9108950895E091C8023A
:100670008091C702E81730F4F0E0E85EFC4F80811B
:1006800090E008958FEF9FEF08959091C8028091B8
:10069000C7022FEF3FEF981748F4E92FF0E0E85E2C
:1006A000FC4F208130E09F5F9093C802C9010895FC
:1006B0008091C7029091C802891B990B0895CF922F
:1006C000DF92EF92FF920F931F93CF93DF937C0102
:1006D000CB018A012091CE02222389F0EB016B012C
:1006E000C40ED51ECC15DD0569F06991D701ED91D9
:1006F000FC910190F081E02DC7010995F3CF642FA3
:100700000E94CF02C801DF91CF911F910F91FF90FE
:10071000EF90DF90CF900895CF93DF931F92CDB7E6
:10072000DEB769832091CE022223F9F02091F102F5
:10073000203258F021E030E0FC013383228390E046
:1007400080E00F90DF91CF9108958091CF02E82F44
:10075000F0E0E053FD4F998190838F5F8093CF024B
:100760008093F10281E090E0ECCF61E0CE01019650
:100770000E94CF02F7CF90E080E008958091BC0204
:100780009091BD0201969093BD028093BC0285E1D9
:100790000C94AB012091AF013091B0018091BA026D
:1007A0009091BB022032310511F4807F08952034EE
:1007B000310511F4807E08952038310511F4807CD4
:1007C00008952115314009F48078089582E493E07A
:1007D0000E941C01892BD1F382E493E00E94FA006D
:1007E0000895CF93C82F0E94E603803251F484E12C
:1007F0000E94AB018C2F0E94AB0180E1CF910C9441
:10080000AB018091BC029091BD0201969093BD0214
:100810008093BC0285E1F2CF0E94E603803231F47E
:1008200084E10E94AB0180E10C94AB018091BC0299
:100830009091BD0201969093BD028093BC0285E128
:10084000F3CF0F931F93CF93DF938C01C7EBD1E0CE
:10085000CE01875B91408017910724F40E94E60344
:100860008993F6CFDF91CF911F910F9108950F9348
:100870001F93CF93DF932FB7F89480913E0390910D
:100880003F03A0914003B09141032FBF4091580115
:100890005091590160915A0170915B018C019D0149
:1008A000041B150B260B370BB901A8014832510563
:1008B0006105710508F44DC080935801909359016A
:1008C000A0935A01B0935B018091010190910001C6
:1008D000813C20F091959093000102C08032D0F3CA
:1008E000C0910001C80FC093010161E089E00E943E
:1008F0002702C11108C060E089E0DF91CF911F910C
:100900000F910C94F901CF3F11F461E0F5CFE1E9CB
:10091000F0E0E491E33039F138F4E130B1F0E23065
:10092000E9F0C7FDF2CFE7CFE73041F1E83071F1F0
:10093000E430B9F780918000806280938000D0E03D
:10094000D0938B00C0938A0004C084B5806884BDB6
:10095000C7BDDF91CF911F910F91089584B580623B
:1009600084BDC8BDF6CF80918000806880938000F0
:10097000D0E0D0938900C0938800EBCF8091B00085
:1009800080688093B000C093B300E3CF8091B00043
:1009900080628093B000C093B400DBCF8EBD0000B6
:1009A0000DB407FEFDCF8EB508951F93CF93DF934F
:1009B000162FD42FC22F0E94CE04812F0E94CE0466
:1009C0008D2F0E94CE048C2FDF91CF911F910C941C
:1009D000CE04EF92FF920F931F93CF93DF93EC011E
:1009E0008B01CB010E94210460E087E00E94F901A5
:1009F00087EBE82E81E0F82E0C0F1D1FC017D107E2
:100A000081F0F70121917F014C2F6D2F80EC0E9426
:100A1000D5046DE270E080E090E00E947D022196B6
:100A2000EDCF61E087E00E94F90180E1DF91CF9195
:100A30001F910F91FF90EF900895CF93DF93D82FE0
:100A4000C92F60E087E00E94F90120E04D2F6C2F54
:100A50008CE40E94D5046EE170E080E090E00E949A
:100A60007D0261E087E0DF91CF910C94F901FC01F8
:100A700001900020E9F73197AF01481B590BBC01E9
:100A800082E493E00C94BE008F929F92AF92BF924B
:100A90000F931F93CF93DF93CDB7DEB7A1970FB618
:100AA000F894DEBF0FBECDBF19A2423008F44AE071
:100AB0008E010F5D1F4F842E912CB12CA12CA5010E
:100AC00094010E940B11E62FB901CA01EA30F4F437
:100AD000E05DD801EE938D01232B242B252B79F794
:100AE00090E080E0109719F0CD010E943705A196A3
:100AF0000FB6F894DEBF0FBECDBFDF91CF911F912F
:100B00000F91BF90AF909F908F900895E95CE1CFD7
:100B100085ED8093BC0080913A0390913B03A091B6
:100B20003C03B0913D030796A11DB11D23E0B6958E
:100B3000A795979587952A95D1F72091BC0024FD1C
:100B400003C010923803089540913A0350913B033B
:100B500060913C0370913D03452B462B472B69F375
:100B60000097A105B10541F025E32A95F1F70000B2
:100B70000197A109B109E1CF809139030C941403C5
:100B8000CF92DF92EF92FF926C01990FEE08FF086F
:100B90004AE0C701B601F7FE0BC08DE20E94AB012F
:100BA00066277727CB016C197D098E099F094AE0DA
:100BB0000E9444058DE291E00E9437058091020178
:100BC000882309F19091C7028091C8029817D9F043
:100BD0008FED93E00E9445036C01990FEE08FF082A
:100BE0004AE0C701B601F7FE0BC08DE20E94AB01DF
:100BF00066277727CB016C197D098E099F094AE08A
:100C00000E944405DFCFFF90EF90DF90CF900895D2
:100C10001F920F920FB60F9211242F933F934F9371
:100C20005F936F937F938F939F93AF93BF93EF9354
:100C3000FF9382E493E00E943C01FF91EF91BF910A
:100C4000AF919F918F917F916F915F914F913F9164
:100C50002F910F900FBE0F901F9018951F920F921B
:100C60000FB60F9211242F938F939F93EF93FF93BF
:100C7000E0915203F09153038081E0915803F09189
:100C8000590382FD1BC0908180915B038F5F8F733E
:100C900020915C03821741F0E0915B03F0E0EE5B92
:100CA000FC4F958F80935B03FF91EF919F918F9104
:100CB0002F910F900FBE0F901F9018958081F4CF49
:100CC0001F920F920FB60F9211242F933F938F9381
:100CD0009F93AF93BF9380913E0390913F03A09168
:100CE0004003B091410330919F0123E0230F2D3742
:100CF00058F50196A11DB11D20939F0180933E03DD
:100D000090933F03A0934003B09341038091A001CF
:100D10009091A101A091A201B091A3010196A11D02
:100D2000B11D8093A0019093A101A093A201B09363
:100D3000A301BF91AF919F918F913F912F910F9000
:100D40000FBE0F901F90189526E8230F0296A11D45
:100D5000B11DD2CF1F920F920FB60F9211242F9375
:100D60003F934F935F936F937F938F939F93AF9333
:100D7000BF93EF93FF938091B900887F803609F489
:100D80004AC0F0F5883209F4A7C018F5803109F49B
:100D90009BC0B8F4882309F4F9C0883009F494C0E2
:100DA000FF91EF91BF91AF919F918F917F916F9143
:100DB0005F914F913F912F910F900FBE0F901F9019
:100DC0001895883109F488C0803251F78093160352
:100DD00014C0803409F49DC040F48033B9F38833E3
:100DE000F9F68093160385ECB0C0803509F485C010
:100DF000883509F496C0883499F60E948805D0CFCA
:100E0000883909F48CC038F5883729F050F48836D1
:100E100011F0803729F683E08093380310929E0109
:100E200057C0883809F47BC0803919F0803809F040
:100E3000B7CF80919E01803208F071C0E0919E0191
:100E400081E08E0F80939E018091BB00F0E0E2581C
:100E5000FE4F80833DC0803B39F0E0F4803A09F4D6
:100E600079C0883A09F09CCF84E0809338031092CF
:100E70007D0110927C01E091C502F091C6020995B6
:100E800080917C0181110FC081E080937C011092E0
:100E90005C0109C0803C09F4A6CF883C09F4A3CFCB
:100EA000883B09F07DCFE0917D0181E08E0F80933A
:100EB0007D01F0E0E45AFE4F80818093BB00909169
:100EC0007D0180917C0129C0809113038093BB0038
:100ED00085EC8093BC0064CF90911503809114033E
:100EE000981758F5E091150381E08E0F8093150354
:100EF000F0E0EE50FD4F8081E9CFE091150381E0F5
:100F00008E0F809315038091BB00F0E0EE50FD4FF3
:100F1000808390911503809114039817C8F285E897
:100F2000D8CFE091150381E08E0F80931503809157
:100F3000BB00F0E0EE50FD4F8083809117038111DC
:100F40005CCF81E08093120384EA8093BC0010920E
:100F5000380326CF85EC8093BC0010923803809133
:100F60009E01803230F4E0919E01F0E0E258FE4FA5
:100F7000108260919E0170E0E091C302F091C40282
:100F80008EE791E0099510929E010ACF1092160308
:100F900034CF2FB7F89480913E0390913F03A091F6
:100FA0004003B09141032FBF80934A0390934B03BA
:100FB000A0934C03B0934D0382E493E00E94FA00A7
:100FC00097FF26C02FB7F89480913E0390913F037E
:100FD000A0914003B09141032FBF40914A0350912B
:100FE0004B0360914C0370914D03841B950BA60B32
:100FF000B70B4091460350914703609148037091AD
:10100000490384179507A607B707B0F28FEF9FEF44
:101010000895CF92DF92EF92FF920F931F93CF9399
:10102000DF93D82FC62F613208F098C00E94580273
:101030006B017C018091380381116BC081E080934A
:101040003803809317039FEF9093160310921503B4
:101050009C0F909314038093130380911303DD0F6F
:10106000D82BD093130380911203813009F078C0FC
:10107000109212030E9458026B017C0180911303AD
:101080008093BB0080913A0390913B03A0913C0375
:10109000B0913D03892B8A2B8B2BA1F00E94580223
:1010A00000913A0310913B0320913C0330913D03A2
:1010B0006C197D098E099F0906171707280739073C
:1010C00008F448C08091BC0083FDD8CF85EC8093A4
:1010D000BC000E9458026B017C0180913803813072
:1010E00009F440C0809115038C1710F4C0911503CA
:1010F000E2EFF2E0A8E1B3E080E08C1355C08C2F62
:10110000DF91CF911F910F91FF90EF90DF90CF90E3
:10111000089580913A0390913B03A0913C03B091D4
:101120003D03892B8A2B8B2B09F484CF0E94580214
:1011300000913A0310913B0320913C0330913D0311
:101140006C197D098E099F090617170728073907AB
:1011500008F070CF809139030E941403C0E0CFCF14
:1011600085EEB5CF80913A0390913B03A0913C036B
:10117000B0913D03892B8A2B8B2B09F4AECF0E94B3
:10118000580200913A0310913B0320913C033091A7
:101190003D036C197D098E099F090617170728075B
:1011A000390708F09ACFD6CF91919D938F5FA5CF45
:1011B0008F929F92AF92BF92CF92DF92EF92FF9267
:1011C0000F931F93CF93DF93D091F102D13208F0A8
:1011D000D7C0182FC091F0020E9458026B017C0109
:1011E0008091380381116BC082E0809338031093A3
:1011F00017038FEF8093160310921503D0931403F7
:10120000A0EDB2E0E2EFF2E080E0D81391C01092DE
:10121000130380911303CC0FC82BC0931303809149
:101220001203813009F088C0109212030E94580204
:101230006B017C01809113038093BB0080913A0382
:1012400090913B03A0913C03B0913D03892B8A2BE5
:101250008B2BA1F00E94580200913A0310913B039E
:1012600020913C0330913D036C197D098E099F0943
:10127000061717072807390708F442C08091BC00F9
:1012800083FDD8CF85EC8093BC000E9458026B018F
:101290007C0180913803823009F450C0809116039C
:1012A0008F3F09F46FC080911603803209F46CC03F
:1012B00080911603803309F469C084E026C08091D0
:1012C0003A0390913B03A0913C03B0913D03892BDD
:1012D0008A2B8B2B09F484CF0E94580280903A030A
:1012E00090903B03A0903C03B0903D036C197D09A6
:1012F0008E099F0986169706A806B90608F070CFD2
:10130000809139030E94140385E01092CF0210925D
:10131000F1021092CE02DF91CF911F910F91FF90B9
:10132000EF90DF90CF90BF90AF909F908F900895F7
:101330009D9191938F5F69CF85EEA5CF80913A0300
:1013400090913B03A0913C03B0913D03892B8A2BE4
:101350008B2B09F49ECF0E94580200913A03109102
:101360003B0320913C0330913D036C197D098E09AC
:101370009F09061717072807390708F08ACFC0CF3B
:1013800081E0C3CF80E0C1CF82E0BFCF83E0BDCF9B
:101390000F931F93CF93DF93EC018881998100977E
:1013A00059F02A813B812617370730F081E0DF9121
:1013B000CF911F910F9108958B016F5F7F4F0E9416
:1013C0005812009759F0998388831B830A832C81D4
:1013D0003D81232B59F7FC011082E8CF80E0E7CF55
:1013E0000F931F93CF93DF93CDB7DEB769970FB6F7
:1013F000F894DEBF0FBECDBF1F930F933F932F9383
:101400005F934F937F936F93282F082E000C330B1D
:101410003F938F9380E391E09F938F938E010F5FB3
:101420001F4F1F930F930E943413C8010E9437056A
:101430000FB6F894DEBF0FBECDBF69960FB6F89415
:10144000DEBF0FBECDBFDF91CF911F910F910895E9
:10145000E2E4F3E01382128288EE93E0A0E0B0E0D1
:1014600084839583A683B7832DE031E03183208385
:1014700025EC30E03587248724EC30E03787268759
:1014800020EC30E0318B208B21EC30E0338B228B51
:1014900022EC30E0358B248B26EC30E0378B268B2A
:1014A000118E128E138E148EEFEDF3E013821282E2
:1014B00084839583A683B7838FE191E091838083B2
:1014C0000895CF93DF93CDB7DEB7A4970FB6F89406
:1014D000DEBF0FBECDBF789484B5826084BD84B575
:1014E000816084BD85B5826085BD85B5816085BD1F
:1014F00080916E00816080936E00109281008091D7
:10150000810082608093810080918100816080935E
:101510008100809180008160809380008091B10083
:1015200084608093B1008091B00081608093B000AE
:1015300080917A00846080937A0080917A00826042
:1015400080937A0080917A00816080937A00809104
:101550007A00806880937A001092C10061E086E092
:101560000E94270261E085E00E942702EBE8F0E09C
:101570008491E9EAF0E00491EDEBF0E0149111239D
:1015800009F4B4C081110E94D001E12FF0E0EE0F08
:10159000FF1FE258FF4FA591B491EC910E2309F47F
:1015A000A5C081E090E09093CD028093CC02809121
:1015B000CC029091CD02009709F055C361E086E01E
:1015C0000E94F901E0915203F091530382E080837D
:1015D000E0914E03F0914F031082E0915003F0919F
:1015E000510387E6808310925A03E0915603F091ED
:1015F000570386E08083E0915403F0915503808186
:1016000080618083E0915403F0915503808188606C
:101610008083E0915403F09155038081806880833A
:10162000E0915403F091550380818F7D808361E0C8
:1016300087E00E94270287E090E00E94AF0261E00D
:1016400088E00E94270288E090E00E94AF0261E0FB
:1016500089E00E94270289E090E00E94AF024BE8F7
:10166000642E7724739488248394912C64EC262E22
:1016700060E0362E70EB472E70E0572E0091BE02D0
:101680001091BF0261E00115110509F460E087E0E7
:101690000E94F901E090BC02F090BD0261E0E1140B
:1016A000F10409F460E088E00E94F9010E94370427
:1016B00082E493E00E941C01892B01F30E94E6035F
:1016C000813509F46BC208F0A2C0813409F429C144
:1016D00090F4803309F410C1813309F414C18032CD
:1016E00009F0B4C28FEFE81AF80A8EC21092CD0248
:1016F0001092CC025CCF853409F42AC1803509F4FC
:101700002CC1823409F0A2C284E190E00E9421043D
:101710002091B7012093A4018091B8018093A50185
:101720008091B9018093A6018091BA018093A701AD
:101730008091BB018093A8018091BC018093A90195
:101740008091BD018093AA018091BE018093AB017D
:101750008091BF018093AC018091C10190E0982FEE
:1017600088273091C201830F911D9093AE01809321
:10177000AD018091C30190E0982F88273091C4017A
:10178000830F911D9093B0018093AF018091C501AB
:1017900090E0982F88273091C601830F911D909378
:1017A000B2018093B1018091C70190E0B0E0A0E068
:1017B000BA2FA92F982F88273091C801830F911D28
:1017C000A11DB11DDC01992788274091C90150E076
:1017D000542F4427052E000C660B770B840F951FA2
:1017E000A61FB71F3091CA01830F911DA11DB11D06
:1017F0008093B3019093B401A093B501B093B60167
:1018000081E0203E08F480E08093B90279C08136FF
:1018100009F41BC1C0F4863509F4B1C1803609F45E
:1018200012C1853509F012C20E94E603182F0E94EA
:10183000E60390E0982F8827810F911D9093BB02BB
:101840008093BA025DC0843709F440C1853709F43A
:10185000D4C1843609F0FAC10E94E603082F10E0D3
:10186000102F00270E94E603080F111D0E94E603B7
:10187000863409F0F1C0C8010E9421040E94E603E9
:10188000803209F02FCF84E10E94AB010E94CA038D
:101890005C0137EBC32E31E0D32EC601875B91404C
:1018A000801791070CF0D4C00E94CA038A159B05CB
:1018B00031F0C5010E941D050E94CA035C01E09041
:1018C000BA02F090BB02F60120814E2D6F2D80E40C
:1018D0000E94D504F60121814E2D6F2D88E40E94CF
:1018E000D504FFEFEF1AFF0AF092BB02E092BA02B2
:1018F00022E0C20ED11CD1CF1092BD021092BC02C8
:101900000E940C04BBCE0E94E603803209F079C12C
:1019100084E10E94AB0181E491E00E94370580E1FF
:10192000C9C00E94E603813879F020F4803841F084
:1019300080E007C0823851F08339D1F783E501C0D8
:1019400082E00E94F1039ACE81E0FBCF82E1F9CFE1
:1019500085E090E00E942104D3CF012B89F66091AD
:10196000B9028AE00E94F90161E08AE00E94270240
:101970001FB7F8948091B802811125C0F1018491BC
:10198000F2019491E82FF0E0EE0FFF1FE456FF4FB5
:10199000A591B4918C91982321F461E08AE00E9492
:1019A000F90161E08AE00E9427028CB580618CBD5C
:1019B0008CB580648CBD61E08DE00E94270261E0FF
:1019C0008BE00E9427028091B8028F5F8093B8025B
:1019D0001FBF8091B702882351F08FB7F894909180
:1019E000B702913021F49DB39DB39DBB8FBF83E5BA
:1019F0008CBD1DBC60E08DE00E94F90164E170E0E7
:101A000080E090E00E947D021091B90261E06127C0
:101A10008AE00E94F901C3010197F1F7612F8AE082
:101A20000E94F90162E370E080E090E00E947D0294
:101A300020E040E063E58CEA0E94D5049092BF026A
:101A40008092BE025DCF0E94E6030E94E60358CF5B
:101A5000C5010E941D0563CF853409F08EC08091B9
:101A6000B1019091B20180179107A0F0E090BA0205
:101A7000F090BB02EE0CFF1C01321105F0F060E2A9
:101A800070E0C7010E94E904E0E2EE0EF11C005292
:101A90001109F2CF9FEFE91AF90AF092BD02E09224
:101AA000BC0211E10E94E603803269F484E10E94E5
:101AB000AB01812F0E94AB01E1CDB801C7010E94AB
:101AC000E90410E1EFCF0E94BE03D8CD0E94E603E7
:101AD000E82E0E94E603D82E0E94E603082F0E94FB
:101AE000E603803219F00E94BE03C8CDF12CFE2C13
:101AF000EE24ED0CF11C84E10E94AB01063421F5CB
:101B0000D12CC12CCE14DF040CF009CF0091BA0205
:101B10001091BB0220E0402F612F80E20E94D5048B
:101B20000E94AB0120E0402F612F88E20E94D50483
:101B30000E94AB010F5F1F4F1093BB020093BA02CC
:101B4000F2E0CF0ED11CDECF0534B9F40091BA0219
:101B50001091BB02000F111FE00EF11E0E151F05A4
:101B600009F4DDCE2FEF402F612F80EA0E94D504CB
:101B70000E94AB010F5F1F4FF1CF81E19BCF84E04B
:101B800090E00E9421042091BA014091B901609136
:101B9000B8018091B7010E94D504D3CE1092BD0246
:101BA0001092BC029FB7F8948091B802882319F074
:101BB00081508093B8028091B802811105C08CB524
:101BC0008F7B8CBD1092B7029FBF60E08BE00E94BC
:101BD000270260E08DE00E9427026091B90281E057
:101BE00068278AE00E94F90160E08AE00E942702EB
:101BF0001092BF021092BE0283CE0E94E603803292
:101C000049F02FEFE21AF20AF092BD02E092BC0214
:101C100085E150CF84E10E94AB0120E040E060E02C
:101C200080E30E94D5040E94AB0120E041E060E027
:101C300080E30E94D5040E94AB0120E042E060E016
:101C400080E30E94D5040E94AB0169CE9FEFE91AA0
:101C5000F90AF092BD02E092BC020E94E6038032D3
:101C6000B9F682E127CF00E010E0019709F086C2C3
:101C700061E085E00E94F901E0915203F091530385
:101C800082E08083E0914E03F0914F031082E09157
:101C90005003F091510383E0808310925A03E09146
:101CA0005603F091570386E08083E0915403F0914E
:101CB0005503808180618083E0915403F091550346
:101CC000808188608083E0915403F0915503808186
:101CD00080688083E0915403F091550380818F7D6B
:101CE00080831092C8021092C7021092CF02109205
:101CF000F1020E94F60282E990E09093C60280937E
:101D0000C50283E990E09093C4028093C3021092CD
:101D1000BA008CE08093B8001092C90288EE93E07C
:101D2000A0E0B0E080933A0390933B03A0933C0380
:101D3000B0933D0381E08093390380EC95E090936C
:101D4000CB028093CA023E01E5E16E0E711C6E016A
:101D5000FAE1CF0ED11C5E0128E1A20EB11C4E01AA
:101D600086E1880E911CFE0131967F010E943704A6
:101D700082E493E00E941C01892BC1F31D8E1C8E0E
:101D80001F8E1E8E19A218A270E060E0CE014C9644
:101D90000E94C8092C8D3D8D811148C02115310547
:101DA00019F0C9010E94CF111D8E1C8E19A218A214
:101DB0001F8E1E8E1A8219821C821B821E821D8219
:101DC00070E060E0C7010E94C80929813A81811151
:101DD00035C02115310519F0C9010E94CF111A82B1
:101DE00019821E821D821C821B820E94C90797FDD8
:101DF0002DC08E33910551F18AA31BA20D811E8146
:101E00000F5F1F4FB801C7010E94C809882369F3FB
:101E100029813A818D819E81BE016E5D7F4F820F47
:101E2000931F0E941E131E830D83DFCF19A218A2D9
:101E30006FE271E0C9010E941E13BCCF1E821D8299
:101E40006FE271E0C9010E941E13CFCF8C8D9D8D72
:101E5000009709F45BC069817A816115710509F405
:101E600053C04E8D5F8D2D813E814217530708F47C
:101E70004BC00E941E138D819E8199A388A31E8250
:101E80001D8289819A81009711F00E94CF1108A1CB
:101E900019A10115110509F04AC0198289811FEFA6
:101EA0008C33B1F4DF92CF92BF92AF929F928F9218
:101EB0007F926F9289E491E09F938F93FF92EF92CC
:101EC0000E9457130FB6F894DEBF0FBECDBF10E0CF
:101ED0008C8D9D8D009711F00E94CF11111146CF6E
:101EE0008D89873509F4EEC094F5833409F46EC00A
:101EF000823509F492C00FEF1FEF2FEF3FEF4FEF46
:101F00005FEF6FEF7FEF44C00E94CF1189819A810C
:101F10009D8F8C8F8B819C819F8F8E8F8D819E81D9
:101F200099A388A31A8219821C821B82A8CF03312D
:101F3000110510F003E110E06C8D7D8DA801C70143
:101F40000E942513F701E00FF11F1082A7CF8337FE
:101F500011F18637A1F0823671F66E897F8961159D
:101F6000710509F408C181E08093020140910201EA
:101F700050E001E010E030E020E082E609C001E03E
:101F800010E030E020E042E050E070E060E086E702
:101F90000E94F009E8CE8E8991E09093CE02809362
:101FA000F0021092CF021092F10281E00E94D80854
:101FB0006E897F8901E010E0882311F00FEF1FEF99
:101FC00030E020E050E040E08D89E2CF1A8D688D4E
:101FD0008E8991E09093CE028093F0021092CF020E
:101FE0001092F1028FED93E00E948C03612F8FED30
:101FF00093E00E948C0381E00E94D80801E08111E7
:1020000001C000E00195002E000C110B2A8D3B8DC4
:10201000488D598D6E897F89D7CFE88C698D0E2DBB
:10202000162FFE88789481E08093CE02F092F00221
:102030001092CF021092F1028FED93E00E948C0378
:102040006E2D8FED93E00E948C0361E88FED93E09D
:102050000E948C0381E00E94D808811183C0EFE8C0
:10206000F1E03197F1F700C0000063E08F2D0E948E
:1020700009081092C8028093C7028FED93E00E9476
:102080004503F82E8FED93E00E9445033F2C212C51
:102090007101E80EF11CF092C102E092C0028FEDD6
:1020A00093E00E9445038093C2020E151F0509F0BC
:1020B00059C09C013327488D598D6E897F8901E075
:1020C00010E082CFFA8DFCA3088D698DE02EF62EEC
:1020D0001E89789481E08093CE021093F0021092D2
:1020E000CF021092F10260688FED93E00E948C03A2
:1020F000602F8FED93E00E948C036CA18FED93E035
:102100000E948C0381E00E94D80881112BC08FE8C7
:1021100091E00197F1F700C0000063E0812F0E9479
:1021200009081092C8028093C7028FED93E00E94C5
:102130004503182F8FED93E00E944503512E412C4B
:102140008201080F111D8FED93E00E9445038093DB
:10215000C2021F771093C1020093C002E016F1067D
:1021600009F4A7CF488D598D6E897F890FEF1FEF36
:102170002FEF3FEF29CF10920201F8CE0115110584
:10218000E9F30E9428018823C9F30E940000F6CFDA
:1021900091110C94D110803219F089508550C8F7F4
:1021A00008959927882708952F923F924F925F9222
:1021B0006F927F928F929F92AF92BF92CF92DF9257
:1021C000EF92FF920F931F93CF93DF93CDB7DEB7BC
:1021D000CA1BDB0B0FB6F894DEBF0FBECDBF099450
:1021E0002A88398848885F846E847D848C849B84A7
:1021F000AA84B984C884DF80EE80FD800C811B81B5
:10220000AA81B981CE0FD11D0FB6F894DEBF0FBEE3
:10221000CDBFED010895A1E21A2EAA1BBB1BFD0143
:102220000DC0AA1FBB1FEE1FFF1FA217B307E407B5
:10223000F50720F0A21BB30BE40BF50B661F771F0D
:10224000881F991F1A9469F76095709580959095ED
:102250009B01AC01BD01CF010895EE0FFF1F05905A
:10226000F491E02D09940F931F93CF93DF93823065
:10227000910510F482E090E0E091ED03F091EE031F
:1022800030E020E0B0E0A0E0309799F4211531056E
:1022900009F44AC0281B390B24303105D8F58A814E
:1022A0009B816115710589F1FB0193838283FE0196
:1022B00011C0408151810281138148175907E0F014
:1022C0004817590799F4109761F012960C931297DA
:1022D00013961C933296CF01DF91CF911F910F91EE
:1022E00008950093ED031093EE03F4CF211531050B
:1022F00051F04217530738F0A901DB019A01BD01E3
:10230000DF01F801C1CFEF01F9CF9093EE03809385
:10231000ED03CDCFFE01E20FF31F81939193225085
:10232000310939832883D7CF2091EB033091EC0317
:10233000232B41F420910501309106013093EC03E9
:102340002093EB0320910301309104012115310505
:1023500041F42DB73EB74091070150910801241B6D
:10236000350BE091EB03F091EC03E217F307A0F4D7
:102370002E1B3F0B2817390778F0AC014E5F5F4FDB
:102380002417350748F04E0F5F1F5093EC0340931E
:10239000EB03819391939FCFF0E0E0E09CCFCF934C
:1023A000DF930097E9F0FC01329713821282A0912B
:1023B000ED03B091EE03ED0130E020E01097A1F4C1
:1023C00020813181820F931F2091EB033091EC0328
:1023D0002817390709F061C0F093EC03E093EB0391
:1023E000DF91CF910895EA01CE17DF07E8F54A8122
:1023F0005B819E0141155105B1F7E901FB83EA8339
:1024000049915991C40FD51FEC17FD0761F48081E4
:1024100091810296840F951FE901998388838281B7
:1024200093819B838A83F0E0E0E012968D919C91EA
:1024300013970097B9F52D913C911197CD01029614
:10244000820F931F2091EB033091EC03281739077B
:1024500039F6309751F51092EE031092ED03B093D8
:10246000EC03A093EB03BCCFD383C28340815181A3
:10247000840F951FC817D90761F44E5F5F4F88819D
:102480009981480F591F518340838A819B8193838F
:1024900082832115310509F0B0CFF093EE03E0936C
:1024A000ED039ECFFD01DC01C0CF13821282D7CF96
:1024B000B0E0A0E0EEE5F2E10C94D6108C010097BC
:1024C00051F4CB010E9433118C01C801CDB7DEB7A6
:1024D000E0E10C94F210FC01E60FF71F9C01225082
:1024E0003109E217F30708F49DC0D901CD91DC91C1
:1024F0001197C617D70798F0C530D10530F3CE0134
:1025000004978617970708F3C61BD70B2297C1932A
:10251000D1936D937C93CF010E94CF11D6CF5B01F5
:10252000AC1ABD0A4C018C0E9D1EA091ED03B0911A
:10253000EE03512C412CF12CE12C109731F58091B8
:10254000EB039091EC038815990509F05CC04616E1
:10255000570608F058C0809103019091040100973C
:1025600041F48DB79EB74091070150910801841B3B
:10257000950BE817F90708F055C0F093EC03E093CA
:10258000EB03F90171836083A0CF8D919C9111972A
:1025900012966C90129713967C901397A815B90514
:1025A00059F56C0142E0C40ED11CCA14DB0420F1C1
:1025B000AC014A195B09DA011296159780F0628224
:1025C000738251834083D9016D937C93E114F104AC
:1025D00071F0D7011396FC93EE93129776CF229663
:1025E0008C0F9D1FF90191838083F301EFCFF0934E
:1025F000EE03E093ED0369CF4816590608F42C0169
:102600007D01D3019ACFCB010E9433117C01009749
:1026100049F0AE01B8010E941513C8010E94CF1104
:10262000870153CF10E000E050CFFB01DC0102C076
:1026300001900D9241505040D8F70895FB01DC0104
:1026400001900D920020E1F70895FB01DC0141505B
:10265000504048F001900D920020C9F701C01D9232
:1026600041505040E0F70895AEE0B0E0EAE3F3E116
:102670000C94E2100D891E8986E08C831A830983ED
:102680008FEF9FE79E838D83AE01475E5F4F6F891B
:10269000788DCE0101960E9470132F813885020F2C
:1026A000131FF80110822E96E4E00C94FE10AEE0A9
:1026B000B0E0EDE5F3E10C94E41085E08C838B89C8
:1026C0009C899A838983AE01495E5F4F6D897E89BB
:1026D000CE0101960E94D5162E96E2E00C940011D0
:1026E000ABE0B0E0E6E7F3E10C94D4107C013B01F1
:1026F0008A01FC0117821682838181FFC8C1CE0145
:1027000001965C01F7019381F30193FD859193FF9D
:1027100081913F01882309F453C1853239F493FD37
:10272000859193FF81913F01853229F4B70190E0B3
:102730000E943718E7CF912C212C312CFFE1F315A3
:1027400038F08B3211F190F4803209F1833229F1A3
:1027500037FC3CC020ED280F2A3050F536FE20C053
:102760008AE0989E200D1124922E06C08D3291F0A1
:10277000803371F7689430F8F30193FD859193FFEE
:1027800081913F018111DACF21C0689431F86894BA
:1027900032F8F2CF689433F8EFCF689434F8ECCF86
:1027A000EAE02E9E200D1124222E689435F8E4CF05
:1027B0008E3229F436FC04C1689436F8DDCF8C36AD
:1027C00019F4689437F8D8CF8836B1F2982F9F7DE6
:1027D00095549330E0F08336A1F18337C1F183350E
:1027E00009F063C02801F2E04F0E511CF801C080CF
:1027F000D180692D70E036FC02C06FEF7FEFC6011B
:102800000E94E5174C01689437F882010AC00C5FFA
:102810001F4FFFE3F98388248394912C6501E8948A
:1028200037F833FE2DC0522C8114910471F55520D8
:1028300009F468CFB70180E290E00E9437185A94FB
:10284000F6CFF801808189830E5F1F4FE4CF280106
:10285000F2E04F0E511CF801C080D180692D70E06C
:1028600036FC02C06FEF7FEFC6010E94F0174C01EB
:102870008201D5CFB70180E290E00E9437182A94F8
:102880002814190409F0B0F7CECFF60137FC859172
:1028900037FE81916F01B70190E00E943718511007
:1028A0005A94F1E08F1A9108BFCF843619F0893617
:1028B00009F077C0F80137FE6BC0608171818281B9
:1028C00093810C5F1F4FF32DFF763F2E97FF09C0BA
:1028D00090958095709561957F4F8F4F9F4F68942D
:1028E00037F82AE030E0A5010E947F18C82ECA18E8
:1028F0008C2C432C36FE0CC0E89440F8C91440F4EC
:1029000034FE05C032FC03C0F32DFE7E4F2E892C11
:1029100044FE95C0FE01EC0DF11D8081803309F06D
:1029200087C0242D297E422E842D8870582E43FC8A
:1029300095C040FE8FC09C2C821418F42C0C922C55
:10294000981844FE91C0B70180E390E00E943718C8
:1029500042FE09C088E790E041FE02C088E590E0B1
:10296000B7010E943718C91408F48AC0CA94D12C40
:102970009FEFC91AD90ACA0CDB1CF60182916F01BC
:10298000B70190E00E943718AC14BD04B1F74FCFE7
:1029900060817181072E000C880B990B0E5F1F4F11
:1029A00092CFD32CE894D4F82AE030E0853739F17F
:1029B000232D297FD22E8F3601F148F48835A9F0D6
:1029C000F701868197812B96E2E10C94F010803715
:1029D00049F08837A9F7D4FE02C06894D2F820E104
:1029E00030E00DC06894D4F8F6CF34FE03C0822FD7
:1029F0008660D82E20E132E002C028E030E0F80105
:102A0000D7FE0FC060817181828193810C5F1F4F5F
:102A1000A5010E947F18C82ECA183D2CE89437F8EB
:102A200067CF6081718190E080E00E5F1F4FF0CF33
:102A300042FC02C0839478CF8394839475CF842D15
:102A4000867809F471CFF6CFB70180E290E00E945A
:102A5000371883948214C0F3512C73CF522C58181A
:102A6000821408F46ECFF8CF842D867809F47BCFDA
:102A70008BE241FE80E247FC8DE2B70190E071CF2E
:102A8000B70180E390E00E9437189A946CCF8FEFE3
:102A90009FEF99CF20FD09C0FC0123FD05C022FF57
:102AA00002C07383628351834083089544FD17C03D
:102AB00046FD1DC0DB01FC01AA0FBB1FEE1FFF1F5F
:102AC0001094D1F76A0F7B1F8E1F9F1F660F771F11
:102AD000881F991F620F711D811D911D089533E09C
:102AE000660F771F881F991F3150D1F7F3CF34E05D
:102AF000F7CF0F931F93CF93DF938C01C8010E94F0
:102B0000FB17EC0197FD08C00E94C810892BB1F794
:102B1000B801CE010E946718CE01DF91CF911F91BD
:102B20000F9108958F929F92AF92BF92EF92FF9272
:102B30000F931F93CF93DF938C01D62F7A01B22E80
:102B40000E94FB179C0133272B32310529F02D32CF
:102B50003105A9F46894B7F8D15061F480E0DF91B1
:102B6000CF911F910F91FF90EF90BF90AF909F90EA
:102B70008F900895C8010E94FB1797FDEFCFCB2DD2
:102B8000CD7F2B2D2073F9F48033E9F4AA24AA9485
:102B9000AD0E89F0C8010E94FB1797FD0CC0282FCD
:102BA0002F7D283561F4C264D25029F0C8010E94FB
:102BB000FB1797FF08C0812C912C54011BC0B6FE57
:102BC0002BC0C260DA2D812C912C540120ED280FEE
:102BD000283028F1C4FD09C02A3008F1C6FF05C01D
:102BE0002F7D3FEE320F3630C8F0B8010E946718D3
:102BF000C1FFB4CFC7FF08C0B094A0949094809454
:102C0000811C911CA11CB11C2C2FB501A401C70172
:102C10000E944A1581E0A3CFC261D4CF27504C2F28
:102C2000C501B4010E9456154B015C01C260D15030
:102C300009F3C8010E94FB1797FFC8CFD9CFA0E2C4
:102C4000B0E0E5E2F6E10C94D9105C01962E7A0131
:102C5000CE0101966C0180E2F60111928A95E9F7A6
:102C6000F501B381890130E020E0712C812CA0E0D6
:102C700041E050E0F801B3FD8591B3FF8191982FB9
:102C80008F01811107C010E000E0C801A096EDE0BF
:102C90000C94F5108E3519F42115310541F1A21768
:102CA00013064CF48D3549F18D3229F4811006C09C
:102CB000882483941DC0882009F464C0E92FE69518
:102CC000E695E695EC0DFD2DF11D892F8770BA0173
:102CD00001C0660F8A95EAF78081682B60837916B8
:102CE00051F0971510F49F5FE9CF9150E7CFA1E025
:102CF0002F5F3F4FBFCF812CFBCF882019F08E81F3
:102D000080628E83AA2359F0F6019E012F5D3F4F0A
:102D10008081809580833196E217F307C9F7882474
:102D20008394C5010E94FB1797FD16C0E82FE69516
:102D3000E695E695EC0DFD2DF11D208130E0AC010E
:102D40004770552702C0359527954A95E2F720FD33
:102D500006C0B5010E946718882069F094CFE1147D
:102D6000F10429F0F7018083C70101967C019A9450
:102D7000812C9110D6CFE114F10409F486CFF7012C
:102D8000108283CFE82FE695E695E695EC0DFD2DB4
:102D9000F11D982F9770BA0101C0660F9A95EAF756
:102DA0009081692B6083782EA3CFB0E0A0E0EBED9B
:102DB000F6E10C94D7106C01EB015A01FC0117826B
:102DC0001682512CF601E380FE01E3FC8591E3FEBF
:102DD0008191182FEF018823E9F090E00E94C8103C
:102DE000892B21F0C6010E947915ECCF153241F4F0
:102DF000FE01E3FC1591E3FE1191EF01153269F438
:102E0000C6010E94FB1797FD8EC01817D9F2B601B4
:102E10000E946718852D90E08AC000E01A3231F4D4
:102E2000E3FC1591E3FE1191EF0101E0F12C20ED9F
:102E3000210F2A3048F101FF37C0FF2059F318361F
:102E4000B1F11C3609F43DC0112321F3612F70E06C
:102E500088E690E00E94DA17892BE1F2912C812C10
:102E600000FD06C0F50180809180C50102965C01DD
:102E70001E3679F5F6014681578170E060E0202F1B
:102E8000C4010E944A159ECF02606F2D70E090E051
:102E900080E040E20E945615F62EFE01E3FC1591FB
:102EA000E3FE1191EF01C3CFFF24FA94C8CFFE01D6
:102EB000E3FC1591E3FE1191EF01183609F0C4CF40
:102EC00008600460FE01E3FC1591E3FE1191EF013F
:102ED000BBCF1336C1F401FD02C0FF24F394C60139
:102EE0000E94FB1797FD1FC08114910429F0F40183
:102EF0008083C40101964C01FA94F110F0CF00FDDB
:102F000061CF53945FCF1B35B9F49E01A4016F2D9F
:102F1000C6010E941F16EC01892B89F7F6018381F7
:102F2000807309F477CF8FEF9FEF511073CFCDB738
:102F3000DEB7EFE00C94F310C6010E94791597FDFF
:102F4000F2CF1F36A9F130F4143641F0193639F0BA
:102F5000006405C01337B9F01537D1F70062202F90
:102F6000A4016F2DC6010E9492158111C8CFD6CF42
:102F70008114910429F0F4016082C40101964C018E
:102F8000FA94FF2071F0C6010E94FB173C0197FDE7
:102F900008C00E94C810892B59F3B601C3010E94D2
:102FA00067188114910409F4AACFF4011082A7CF05
:102FB0000061D5CFFC010590061621F00020D9F75D
:102FC000C00108953197CF010895FC01059061502B
:102FD00070400110D8F7809590958E0F9F1F08952F
:102FE000FC016150704001900110D8F780959095D8
:102FF0008E0F9F1F0895CF93DF93EC012B8120FF4D
:103000001AC026FF0CC02F7B2B838E819F810196D7
:103010009F838E838A8190E0DF91CF91089522FF74
:1030200018C0E881F9818081082E000C990B009767
:1030300029F420622B838FEF9FEFEECF3196F98337
:10304000E8832E813F812F5F3F4F3F832E83992757
:10305000E3CFEA85FB85099597FFF3CF2B81019696
:1030600021F080E2822B8B83E6CF80E1FBCF0F93B0
:103070001F93CF93DF93182F092FEB018B8181FDD5
:1030800009C01FEF0FEF812F902FDF91CF911F917C
:103090000F91089582FF14C02E813F818C819D8104
:1030A000281739073CF4E881F981CF01019699830B
:1030B000888310838E819F8101969F838E83E3CFC7
:1030C000E885F985812F0995892BA1F3DACFFB01DA
:1030D000238120FF11C026FD0FC08F3F980771F09C
:1030E00082832F7D206423832681378121503109FB
:1030F00037832683992708958FEF9FEF0895FA016C
:10310000AA27283051F1203181F1E8946F936E7F26
:103110006E5F7F4F8F4F9F4FAF4FB1E03ED0B4E017
:103120003CD0670F781F891F9A1FA11D680F791F58
:103130008A1F911DA11D6A0F711D811D911DA11D69
:1031400020D009F468943F912AE0269F1124301979
:10315000305D3193DEF6CF010895462F4770405D14
:103160004193B3E00FD0C9F7F6CF462F4F70405DC3
:103170004A3318F0495D31FD4052419302D0A9F71E
:10318000EACFB4E0A6959795879577956795BA9518
:10319000C9F700976105710508959B01AC010A2EDE
:1031A00006945795479537952795BA95C9F7620FB5
:1031B000731F841F951FA01D0895F894FFCF0880EA
:1031C000010000EF038000000000005E01BE00EB84
:1031D00000B0011C01FA000E01000000008C035F2A
:1031E00003BB0335035803450336030D0A003C2592
:1031F000632025642025642025642025643E004149
:10320000565220495350003C2563202564202564F4
:063210002025643E0000D1
:107E0000112484B714BE81FFF0D085E080938100F7
:107E100082E08093C00088E18093C10086E0809377
:107E2000C20080E18093C4008EE0C9D0259A86E02C
:107E300020E33CEF91E0309385002093840096BBD3
:107E4000B09BFECF1D9AA8958150A9F7CC24DD24C4
:107E500088248394B5E0AB2EA1E19A2EF3E0BF2EE7
:107E6000A2D0813461F49FD0082FAFD0023811F036
:107E7000013811F484E001C083E08DD089C08234E0
:107E800011F484E103C0853419F485E0A6D080C0E4
:107E9000853579F488D0E82EFF2485D0082F10E0AE
:107EA000102F00270E291F29000F111F8ED06801E7
:107EB0006FC0863521F484E090D080E0DECF843638
:107EC00009F040C070D06FD0082F6DD080E0C81688
:107ED00080E7D80618F4F601B7BEE895C0E0D1E017
:107EE00062D089930C17E1F7F0E0CF16F0E7DF06D8
:107EF00018F0F601B7BEE89568D007B600FCFDCFD4
:107F0000A601A0E0B1E02C9130E011968C91119780
:107F100090E0982F8827822B932B1296FA010C0160
:107F200087BEE89511244E5F5F4FF1E0A038BF0790
:107F300051F7F601A7BEE89507B600FCFDCF97BE46
:107F4000E89526C08437B1F42ED02DD0F82E2BD052
:107F50003CD0F601EF2C8F010F5F1F4F84911BD097
:107F6000EA94F801C1F70894C11CD11CFA94CF0C13
:107F7000D11C0EC0853739F428D08EE10CD085E9AC
:107F80000AD08FE07ACF813511F488E018D01DD067
:107F900080E101D065CF982F8091C00085FFFCCF94
:107FA0009093C60008958091C00087FFFCCF809118
:107FB000C00084FD01C0A8958091C6000895E0E648
:107FC000F0E098E1908380830895EDDF803219F02E
:107FD00088E0F5DFFFCF84E1DECF1F93182FE3DFCA
:107FE0001150E9F7F2DF1F91089580E0E8DFEE27F6
:047FF000FF270994CA
:027FFE00040479
:00000001FF
