:020000040000FA
:100000000C9468000C9490000C9490000C94900058
:100010000C9490000C9490000C9490000C94900020
:100020000C9490000C9490000C9490000C94900010
:100030000C9490000C9490000C9490000C94900000
:100040000C949E050C9490000C946C050C94460541
:100050000C9490000C9490000C9490000C949000E0
:100060000C94E8050C9490006364696E6F7073756E
:1000700078585B0000000000250028002B000000DD
:1000800000002300260029000000000800020100F3
:100090000003040700000000000000000000000052
:1000A000240027002A0001020408102040800102D9
:1000B00004081020010204081020040404040404AD
:1000C0000404020202020202030303030303700991
:1000D00011241FBECFEFD8E0DEBFCDBF23E0A4E5E3
:1000E000B1E001C01D92A93EB207E1F711E0A0E026
:1000F000B1E0E6EDFFE202C005900D92A435B10734
:10010000D9F710E0C8E6D0E004C02197FE010E94B4
:100110003910C736D107C9F70E94A9090C94E9170D
:100120000C940000089508950895AF92BF92CF9265
:10013000DF92EF92FF920F931F93CF93DF936C01A7
:100140007B018B01040F151FEB015E01AE18BF0888
:10015000C017D10759F06991D601ED91FC9101903A
:10016000F081E02DC6010995892B79F7C501DF9152
:10017000CF911F910F91FF90EF90DF90CF90BF90A4
:10018000AF900895FC01538D448D252F30E0842FCE
:1001900090E0821B930B541710F0CF9608950197AF
:1001A0000895FC01918D828D981761F0A28DAE0F9C
:1001B000BF2FB11D5D968C91928D9F5F9F73928F23
:1001C00090E008958FEF9FEF0895FC01918D828D4F
:1001D000981731F0828DE80FF11D858D90E008951C
:1001E0008FEF9FEF0895FC01918D228D892F90E074
:1001F000805C9F4F821B91098F73992708958CE330
:1002000093E00E94F30021E0892B09F420E0822F83
:10021000089580E090E0892B29F00E94FF00811171
:100220000C9400000895FC01A48DA80FB92FB11DF6
:10023000A35ABF4F2C91848D90E001968F7399271C
:10024000848FA689B7892C93A089B1898C918370FA
:1002500080648C93938D848D981306C00288F389F3
:10026000E02D80818F7D80830895EF92FF920F9320
:100270001F93CF93DF93EC0181E0888F9B8D8C8D52
:1002800098131AC0E889F989808185FF15C09FB746
:10029000F894EE89FF896083E889F9898081837009
:1002A000806480839FBF81E090E0DF91CF911F91B8
:1002B0000F91FF90EF900895F62E0B8D10E00F5FD9
:1002C0001F4F0F731127E02E8C8D8E110CC00FB6AF
:1002D00007FCFACFE889F989808185FFF5CFCE0147
:1002E0000E941301F1CFEB8DEC0FFD2FF11DE35AAE
:1002F000FF4FF0829FB7F8940B8FEA89FB898081CA
:100300008062CFCF682F8CE393E00C943501CF93BC
:10031000DF93EC01888D8823B9F0AA89BB89E8892D
:10032000F9898C9185FD03C0808186FD0DC00FB6D3
:1003300007FCF7CF8C9185FFF2CF808185FFEDCF51
:10034000CE010E941301E9CFDF91CF910895833050
:1003500081F028F4813099F08230A9F00895873037
:10036000A9F08830C9F08430B1F4809180008F7D8D
:1003700003C0809180008F7780938000089584B5BA
:100380008F7784BD089584B58F7DFBCF8091B000B9
:100390008F778093B00008958091B0008F7DF9CF62
:1003A0001F93CF93DF93282F30E0F901E857FF4FD9
:1003B0008491F901EA55FF4FD491F901E654FF4FBA
:1003C000C491CC23A9F0162F81110E94A701EC2F14
:1003D000F0E0EE0FFF1FEC58FF4FA591B4918FB7DF
:1003E000F894EC91111108C0D095DE23DC938FBFF7
:1003F000DF91CF911F910895DE2BF8CFCF93DF933C
:1004000090E0FC01EA55FF4F249186549F4FFC0178
:1004100084918823D1F090E0880F991FFC01E45665
:10042000FF4FA591B491FC01EC58FF4FC591D491B9
:1004300061110EC09FB7F8948C91E22FE0958E2346
:100440008C932881E223E8839FBFDF91CF910895A9
:100450008FB7F894EC91E22BEC938FBFF6CF3FB7B8
:10046000F89480919C0190919D01A0919E01B09182
:100470009F0126B5A89B05C02F3F19F00196A11D2D
:10048000B11D3FBFBA2FA92F982F8827BC01CD01DE
:10049000620F711D811D911D42E0660F771F881F3D
:1004A000991F4A95D1F708958F929F92AF92BF926C
:1004B000CF92DF92EF92FF924B015C010E942F02DC
:1004C0006B017C010E942F026C197D098E099F0926
:1004D000683E734081059105A8F321E0821A9108D6
:1004E000A108B10888EEC80E83E0D81EE11CF11CFB
:1004F00081149104A104B10429F7FF90EF90DF90DB
:10050000CF90BF90AF909F908F9008951F93CF93FF
:10051000DF93182FC3E0D0E061E0812F0E94D0016B
:100520006EE170E080E090E00E94540260E0812F74
:100530000E94D0016EE170E080E090E00E945402E1
:10054000219751F7DF91CF911F9108952091780164
:10055000260F3327331F21323105ECF4209132036B
:10056000FC0190E080E0243069F082E00895A091E1
:1005700078012191AC01485A5E4FA40FB52FB11DEF
:100580002C930196861798F380917801680F6093F9
:10059000780180E0089581E008951092320381E0AF
:1005A0008093110310920C0361E082E10E94D0015C
:1005B00061E083E10E94D001E9EBF0E080818E7F71
:1005C000808380818D7F808388E48093B80085E478
:1005D0008093BC000895CF93DF9391E09093C50280
:1005E0008823B9F0C091B800D091BA008091BC00C6
:1005F0008A7B8093BC0060E082E10E94D00160E0D1
:1006000083E10E94D0010E94CD02D093BA00C09332
:10061000B800DF91CF9108950895E091C4028091D0
:10062000C302E81730F4F0E0EE5EFC4F808190E00A
:1006300008958FEF9FEF08959091C4028091C302B7
:100640002FEF3FEF981748F4E92FF0E0EE5EFC4FF4
:10065000208130E09F5F9093C402C901089580918A
:10066000C3029091C402891B990B0895CF92DF9227
:10067000EF92FF920F931F93CF93DF937C01CB01F7
:100680008A012091C802222389F0EB016B01C40E7C
:10069000D51ECC15DD0569F06991D701ED91FC916E
:1006A0000190F081E02DC7010995F3CF642F0E94DE
:1006B000A602C801DF91CF911F910F91FF90EF909B
:1006C000DF90CF900895CF93DF931F92CDB7DEB721
:1006D00069832091C8022223F9F02091EB02203295
:1006E00058F021E030E0FC013383228390E080E089
:1006F0000F90DF91CF9108958091C902E82FF0E02B
:10070000E653FD4F998190838F5F8093C902809358
:10071000EB0281E090E0ECCF61E0CE0101960E9417
:10072000A602F7CF90E080E008958091B802909102
:10073000B90201969093B9028093B80285E10C94B6
:1007400082012091AB013091AC018091B602909171
:10075000B7022032310511F4807F0895203431052D
:1007600011F4807E08952038310511F4807C0895BD
:100770002115314009F4807808958CE393E00E94BC
:10078000F300892BD1F38CE393E00E94D10008950C
:10079000CF93C82F0E94BD03803251F484E10E94A0
:1007A00082018C2F0E94820180E1CF910C94820102
:1007B0008091B8029091B90201969093B90280930A
:1007C000B80285E1F2CF0E94BD03803231F484E1AA
:1007D0000E94820180E10C9482018091B802909184
:1007E000B90201969093B9028093B80285E1F3CFE4
:1007F0000F931F93CF93DF938C01C3EBD1E0CE0116
:10080000835B91408017910724F40E94BD03899374
:10081000F6CFDF91CF911F910F9108950F931F9302
:10082000CF93DF932FB7F8948091380390913903D9
:10083000A0913A03B0913B032FBF409154015091D6
:10084000550160915601709157018C019D01041B67
:10085000150B260B370BB901A8014832510561056C
:10086000710508F44DC08093540190935501A093F5
:100870005601B09357018091010190910001813C94
:1008800020F091959093000102C08032D0F3C09186
:100890000001C80FC093010161E089E00E94FE01E0
:1008A000C11108C060E089E0DF91CF911F910F91E5
:1008B0000C94D001CF3F11F461E0F5CFE1E9F0E015
:1008C000E491E33039F138F4E130B1F0E230E9F0AD
:1008D000C7FDF2CFE7CFE73041F1E83071F1E43006
:1008E000B9F780918000806280938000D0E0D0933F
:1008F0008B00C0938A0004C084B5806884BDC7BDE6
:10090000DF91CF911F910F91089584B5806284BDCE
:10091000C8BDF6CF80918000806880938000D0E0D1
:10092000D0938900C0938800EBCF8091B00080689D
:100930008093B000C093B300E3CF8091B000806299
:100940008093B000C093B400DBCF8EBD00000DB427
:1009500007FEFDCF8EB508951F93CF93DF93162F1B
:10096000D42FC22F0E94A504812F0E94A5048D2F91
:100970000E94A5048C2FDF91CF911F910C94A504A8
:10098000EF92FF920F931F93CF93DF93EC018B01B4
:10099000CB010E94F80360E087E00E94D00183EB66
:1009A000E82E81E0F82E0C0F1D1FC017D10781F033
:1009B000F70121917F014C2F6D2F80EC0E94AC0438
:1009C0006DE270E080E090E00E9454022196EDCF4D
:1009D00061E087E00E94D00180E1DF91CF911F911B
:1009E0000F91FF90EF900895CF93DF93D82FC92FE9
:1009F00060E087E00E94D00120E04D2F6C2F8CE456
:100A00000E94AC046EE170E080E090E00E9454022D
:100A100061E087E0DF91CF910C94D00185ED809368
:100A2000BC008091340390913503A0913603B091BE
:100A300037030796A11DB11D23E0B695A79597959D
:100A400087952A95D1F72091BC0024FD03C0109210
:100A50003203089540913403509135036091360379
:100A600070913703452B462B472B69F30097A1055F
:100A7000B10541F025E32A95F1F700000197A1099E
:100A8000B109E1CF809133030C94EB021F920F92D6
:100A90000FB60F9211242F933F934F935F936F9351
:100AA0007F938F939F93AF93BF93EF93FF938CE3C9
:100AB00093E00E941301FF91EF91BF91AF919F913D
:100AC0008F917F916F915F914F913F912F910F90F7
:100AD0000FBE0F901F9018951F920F920FB60F9296
:100AE00011242F938F939F93EF93FF93E0914C03E7
:100AF000F0914D038081E0915203F091530382FD08
:100B00001BC09081809155038F5F8F732091560396
:100B1000821741F0E0915503F0E0E45CFC4F958FC3
:100B200080935503FF91EF919F918F912F910F909B
:100B30000FBE0F901F9018958081F4CF1F920F92D7
:100B40000FB60F9211242F933F938F939F93AF93E0
:100B5000BF938091380390913903A0913A03B091EB
:100B60003B0330919B0123E0230F2D3758F501966D
:100B7000A11DB11D20939B018093380390933903ED
:100B8000A0933A03B0933B0380919C0190919D0107
:100B9000A0919E01B0919F010196A11DB11D80936E
:100BA0009C0190939D01A0939E01B0939F01BF91E2
:100BB000AF919F918F913F912F910F900FBE0F900A
:100BC0001F90189526E8230F0296A11DB11DD2CFC4
:100BD0001F920F920FB60F9211242F933F934F93B2
:100BE0005F936F937F938F939F93AF93BF93EF9395
:100BF000FF938091B900887F803609F44AC0F0F5F0
:100C0000883209F4A7C018F5803109F49BC0B8F404
:100C1000882309F4F9C0883009F494C0FF91EF915A
:100C2000BF91AF919F918F917F916F915F914F9104
:100C30003F912F910F900FBE0F901F901895883104
:100C400009F488C0803251F78093100314C08034B7
:100C500009F49DC040F48033B9F38833F9F68093EA
:100C6000100385ECB0C0803509F485C0883509F4DF
:100C700096C0883499F60E940E05D0CF883909F4C1
:100C80008CC038F5883729F050F4883611F0803759
:100C900029F683E08093320310929A0157C0883876
:100CA00009F47BC0803919F0803809F0B7CF809102
:100CB0009A01803208F071C0E0919A0181E08E0FB4
:100CC00080939A018091BB00F0E0E658FE4F80834C
:100CD0003DC0803B39F0E0F4803A09F479C0883AAD
:100CE00009F09CCF84E08093320310927901109236
:100CF0007801E091C102F091C202099580917801DA
:100D000081110FC081E0809378011092580109C0D1
:100D1000803C09F4A6CF883C09F4A3CF883B09F0B6
:100D20007DCFE091790181E08E0F80937901F0E031
:100D3000E85AFE4F80818093BB00909179018091A9
:100D4000780129C080910D038093BB0085EC8093CE
:100D5000BC0064CF90910F0380910E03981758F553
:100D6000E0910F0381E08E0F80930F03F0E0E451D8
:100D7000FD4F8081E9CFE0910F0381E08E0F8093DA
:100D80000F038091BB00F0E0E451FD4F8083909110
:100D90000F0380910E039817C8F285E8D8CFE09131
:100DA0000F0381E08E0F80930F038091BB00F0E072
:100DB000E451FD4F80838091110381115CCF81E06C
:100DC00080930C0384EA8093BC001092320326CFF8
:100DD00085EC8093BC001092320380919A0180329E
:100DE00030F4E0919A01F0E0E658FE4F10826091F5
:100DF0009A0170E0E091BF02F091C0028AE791E0B1
:100E0000099510929A010ACF1092100334CF2FB790
:100E1000F8948091380390913903A0913A03B091EE
:100E20003B032FBF8093440390934503A093460355
:100E3000B09347038CE393E00E94D10097FF26C054
:100E40002FB7F8948091380390913903A0913A0319
:100E5000B0913B032FBF40914403509145036091F3
:100E6000460370914703841B950BA60BB70B40916B
:100E700040035091410360914203709143038417F2
:100E80009507A607B707B0F28FEF9FEF0895CF92AF
:100E9000DF92EF92FF920F931F93CF93DF93D82FA0
:100EA000C62F613208F098C00E942F026B017C01AE
:100EB0008091320381116BC081E080933203809373
:100EC00011039FEF9093100310920F039C0F9093C8
:100ED0000E0380930D0380910D03DD0FD82BD0936B
:100EE0000D0380910C03813009F078C010920C033F
:100EF0000E942F026B017C0180910D038093BB0047
:100F00008091340390913503A0913603B09137035B
:100F1000892B8A2B8B2BA1F00E942F020091340386
:100F20001091350320913603309137036C197D09F8
:100F30008E099F09061717072807390708F448C0C4
:100F40008091BC0083FDD8CF85EC8093BC000E94CB
:100F50002F026B017C0180913203813009F440C083
:100F600080910F038C1710F4C0910F03ECEEF2E0A8
:100F7000A2E1B3E080E08C1355C08C2FDF91CF91BC
:100F80001F910F91FF90EF90DF90CF900895809187
:100F9000340390913503A0913603B0913703892B28
:100FA0008A2B8B2B09F484CF0E942F0200913403EB
:100FB0001091350320913603309137036C197D0968
:100FC0008E099F09061717072807390708F070CF01
:100FD000809133030E94EB02C0E0CFCF85EEB5CF06
:100FE0008091340390913503A0913603B09137037B
:100FF000892B8A2B8B2B09F4AECF0E942F020091F4
:1010000034031091350320913603309137036C1966
:101010007D098E099F09061717072807390708F069
:101020009ACFD6CF91919D938F5FA5CF8F929F92AC
:10103000AF92BF92CF92DF92EF92FF920F931F93E6
:10104000CF93DF93D091EB02D13208F0D7C0182FA5
:10105000C091EA020E942F026B017C018091320351
:1010600081116BC082E080933203109311038FEFE4
:101070008093100310920F03D0930E03AAECB2E0FA
:10108000ECEEF2E080E0D81391C010920D03809155
:101090000D03CC0FC82BC0930D0380910C0381303E
:1010A00009F088C010920C030E942F026B017C0192
:1010B00080910D038093BB008091340390913503A0
:1010C000A0913603B0913703892B8A2B8B2BA1F08B
:1010D0000E942F02009134031091350320913603B2
:1010E000309137036C197D098E099F090617170780
:1010F0002807390708F442C08091BC0083FDD8CF8F
:1011000085EC8093BC000E942F026B017C018091D2
:101110003203823009F450C0809110038F3F09F4EC
:101120006FC080911003803209F46CC0809110036D
:10113000803309F469C084E026C080913403909123
:101140003503A0913603B0913703892B8A2B8B2B63
:1011500009F484CF0E942F028090340390903503CD
:10116000A0903603B09037036C197D098E099F0952
:1011700086169706A806B90608F070CF809133034B
:101180000E94EB0285E01092C9021092EB021092CD
:10119000C802DF91CF911F910F91FF90EF90DF90E8
:1011A000CF90BF90AF909F908F9008959D91919315
:1011B0008F5F69CF85EEA5CF809134039091350381
:1011C000A0913603B0913703892B8A2B8B2B09F41E
:1011D0009ECF0E942F02009134031091350320917D
:1011E0003603309137036C197D098E099F09061764
:1011F00017072807390708F08ACFC0CF81E0C3CF8F
:1012000080E0C1CF82E0BFCF83E0BDCF0F931F93BB
:10121000CF93DF93EC0188819981009759F02A815F
:101220003B812617370730F081E0DF91CF911F9186
:101230000F9108958B016F5F7F4F0E94641100979B
:1012400059F0998388831B830A832C813D81232B4A
:1012500059F7FC011082E8CF80E0E7CF0F931F938E
:10126000CF93DF93CDB7DEB769970FB6F894DEBFA3
:101270000FBECDBF1F930F933F932F935F934F9359
:101280007F936F93282F082E000C330B3F938F937F
:101290008CE291E09F938F938E010F5F1F4F1F93FE
:1012A0000F930E944012F80101900020E9F7319756
:1012B000AF01401B510BB8018CE393E00E949500F5
:1012C0000FB6F894DEBF0FBECDBF69960FB6F89487
:1012D000DEBF0FBECDBFDF91CF911F910F9108955B
:1012E000ECE3F3E01382128288EE93E0A0E0B0E03A
:1012F00084839583A683B7832CE031E031832083F8
:1013000025EC30E03587248724EC30E037872687CA
:1013100020EC30E0318B208B21EC30E0338B228BC2
:1013200022EC30E0358B248B26EC30E0378B268B9B
:10133000118E128E138E148EE9EDF3E01382128259
:1013400084839583A683B7838EE191E09183808324
:101350000895CF93DF93CDB7DEB7A4970FB6F89477
:10136000DEBF0FBECDBF789484B5826084BD84B5E6
:10137000816084BD85B5826085BD85B5816085BD90
:1013800080916E00816080936E0010928100809148
:1013900081008260809381008091810081608093D0
:1013A0008100809180008160809380008091B100F5
:1013B00084608093B1008091B00081608093B00020
:1013C00080917A00846080937A0080917A008260B4
:1013D00080937A0080917A00816080937A00809176
:1013E0007A00806880937A001092C10061E086E004
:1013F0000E94FE0161E085E00E94FE01EBE8F0E062
:101400008491E9EAF0E00491EDEBF0E0149111230E
:1014100009F4B4C081110E94A701E12FF0E0EE0FA2
:10142000FF1FE258FF4FA591B491EC910E2309F4F0
:10143000A5C081E090E09093C7028093C60280919E
:10144000C6029091C702009709F059C361E086E097
:101450000E94D001E0914C03F0914D0382E0808323
:10146000E0914803F09149031082E0914A03F09122
:101470004B0387E6808310925403E0915003F09170
:10148000510386E08083E0914E03F0914F03808109
:1014900080618083E0914E03F0914F0380818860EA
:1014A0008083E0914E03F0914F03808180688083B8
:1014B000E0914E03F0914F0380818F7D808361E046
:1014C00087E00E94FE0187E090E00E94860261E0D2
:1014D00088E00E94FE0188E090E00E94860261E0C0
:1014E00089E00E94FE0189E090E00E9486024BE8BC
:1014F000642E7724739488248394912C64EC262E94
:1015000060E0362E70EB472E70E0572E0091BA0245
:101510001091BB0261E00115110509F460E087E05C
:101520000E94D001E090B802F090B90261E0E114AD
:10153000F10409F460E088E00E94D0010E940E04EA
:101540008CE393E00E94F300892B01F30E94BD031A
:10155000813509F46FC208F0A2C0813409F42DC1AD
:1015600090F4803309F410C1813309F414C180323E
:1015700009F0B8C28FEFE81AF80A92C21092C702B7
:101580001092C6025CCF853409F42EC1803509F46F
:1015900030C1823409F0A6C284E190E00E94F803D1
:1015A0002091B3012093A0018091B4018093A10107
:1015B0008091B5018093A2018091B6018093A3012F
:1015C0008091B7018093A4018091B8018093A50117
:1015D0008091B9018093A6018091BA018093A701FF
:1015E0008091BB018093A8018091BD0190E0982F6C
:1015F00088273091BE01830F911D9093AA0180939B
:10160000A9018091BF0190E0982F88273091C001F7
:10161000830F911D9093AC018093AB018091C10128
:1016200090E0982F88273091C201830F911D9093ED
:10163000AE018093AD018091C30190E0B0E0A0E0E5
:10164000BA2FA92F982F88273091C401830F911D9D
:10165000A11DB11DDC01992788274091C50150E0EB
:10166000542F4427052E000C660B770B840F951F13
:10167000A61FB71F3091C601830F911DA11DB11D7B
:101680008093AF019093B001A093B101B093B201E8
:1016900081E0203E08F480E08093B50279C0813675
:1016A00009F41FC1C0F4863509F4B5C1803609F4C8
:1016B00016C1853509F016C20E94BD03182F0E947D
:1016C000BD0390E0982F8827810F911D9093B7025A
:1016D0008093B6025DC0843709F444C1853709F4AC
:1016E000D8C1843609F0FEC10E94BD03082F10E066
:1016F000102F00270E94BD03080F111D0E94BD037B
:10170000863409F0F5C0C8010E94F8030E94BD03A9
:10171000803209F02FCF84E10E9482010E94A10350
:101720005C0133EBC32E31E0D32EC601835B9140C5
:10173000801791070CF0D8C00E94A1038A159B0561
:1017400031F0C5010E94F4040E94A1035C01E09005
:10175000B602F090B702F60120814E2D6F2D80E485
:101760000E94AC04F60121814E2D6F2D88E40E9469
:10177000AC04FFEFEF1AFF0AF092B702E092B60254
:1017800022E0C20ED11CD1CF1092B9021092B80241
:101790000E94E303BBCE0E94BD03803209F07DC1ED
:1017A00084E10E94820147E050E06DE371E08CE348
:1017B00093E00E94950080E1C9C00E94BD0381387A
:1017C00079F020F4803841F080E007C0823851F091
:1017D0008339D1F783E501C082E00E94C80396CE29
:1017E00081E0FBCF82E1F9CF85E090E00E94F80331
:1017F000CFCF012B69F66091B5028AE00E94D0013B
:1018000061E08AE00E94FE011FB7F8948091B40263
:10181000811125C0F1018491F2019491E82FF0E04B
:10182000EE0FFF1FE456FF4FA591B4918C919823C2
:1018300021F461E08AE00E94D00161E08AE00E9428
:10184000FE018CB580618CBD8CB580648CBD61E07F
:101850008DE00E94FE0161E08BE00E94FE0180911C
:10186000B4028F5F8093B4021FBF8091B3028823BC
:1018700051F08FB7F8949091B302913021F49DB359
:101880009DB39DBB8FBF83E58CBD1DBC60E08DE02B
:101890000E94D00164E170E080E090E00E94540278
:1018A0001091B50261E061278AE00E94D001C30176
:1018B0000197F1F7612F8AE00E94D00162E370E0A6
:1018C00080E090E00E94540220E040E063E58CEA72
:1018D0000E94AC049092BB028092BA0259CF0E943F
:1018E000BD030E94BD0354CFC5010E94F40463CF21
:1018F000853409F08EC08091AD019091AE018017C2
:101900009107A0F0E090B602F090B702EE0CFF1C39
:1019100001321105F0F060E270E0C7010E94C004DE
:10192000E0E2EE0EF11C00521109F2CF9FEFE91A2E
:10193000F90AF092B902E092B80211E10E94BD03E7
:10194000803269F484E10E948201812F0E94820129
:10195000DDCDB801C7010E94C00410E1EFCF0E94A5
:101960009503D4CD0E94BD03E82E0E94BD03D82E5E
:101970000E94BD03082F0E94BD03803219F00E940F
:101980009503C4CDF12CFE2CEE24ED0CF11C84E16A
:101990000E948201063421F5D12CC12CCE14DF0423
:1019A0000CF009CF0091B6021091B70220E0402F51
:1019B000612F80E20E94AC040E94820120E0402F4F
:1019C000612F88E20E94AC040E9482010F5F1F4FCA
:1019D0001093B7020093B602F2E0CF0ED11CDECF17
:1019E0000534B9F40091B6021091B702000F111F2F
:1019F000E00EF11E0E151F0509F4DDCE2FEF402F6E
:101A0000612F80EA0E94AC040E9482010F5F1F4F89
:101A1000F1CF81E19BCF84E090E00E94F803209118
:101A2000B6014091B5016091B4018091B3010E946B
:101A3000AC04D3CE1092B9021092B8029FB7F894BA
:101A40008091B402882319F081508093B402809170
:101A5000B402811105C08CB58F7B8CBD1092B3028E
:101A60009FBF60E08BE00E94FE0160E08DE00E947D
:101A7000FE016091B50281E068278AE00E94D001F2
:101A800060E08AE00E94FE011092BB021092BA024E
:101A90007FCE0E94BD03803249F02FEFE21AF20A96
:101AA000F092B902E092B80285E150CF84E10E9441
:101AB000820120E040E060E080E30E94AC040E94EC
:101AC000820120E041E060E080E30E94AC040E94DB
:101AD000820120E042E060E080E30E94AC040E94CA
:101AE000820169CE9FEFE91AF90AF092B902E092F9
:101AF000B8020E94BD038032B9F682E127CF00E030
:101B000010E0019709F068C261E085E00E94D00111
:101B1000E0914C03F0914D0382E08083E091480313
:101B2000F09149031082E0914A03F0914B0383E066
:101B3000808310925403E0915003F091510386E0AA
:101B40008083E0914E03F0914F0380818061808318
:101B5000E0914E03F0914F03808188608083E09193
:101B60004E03F0914F03808180688083E0914E03A3
:101B7000F0914F0380818F7D80831092C402109278
:101B8000C3021092C9021092EB020E94CD0282E9B8
:101B900090E09093C2028093C10283E990E0909319
:101BA000C0028093BF021092BA008CE08093B8000C
:101BB0001092C50288EE93E0A0E0B0E08093340379
:101BC00090933503A0933603B093370381E080935D
:101BD00033033E01E5E16E0E711C6E01FAE1CF0E9A
:101BE000D11C5E0128E1A20EB11C4E0186E1880ED7
:101BF000911CFE0131967F010E940E048CE393E05C
:101C00000E94F300892BC1F31D8E1C8E1F8E1E8E29
:101C100019A218A270E060E0CE014C960E9406095D
:101C20002C8D3D8D811148C02115310519F0C90158
:101C30000E94DB101D8E1C8E19A218A21F8E1E8EF4
:101C40001A8219821C821B821E821D8270E060E053
:101C5000C7010E94060929813A81811135C02115E9
:101C6000310519F0C9010E94DB101A8219821E8207
:101C70001D821C821B820E94070797FD2DC08E3398
:101C8000910551F18AA31BA20D811E810F5F1F4F89
:101C9000B801C7010E940609882369F329813A81A6
:101CA0008D819E81BE016E5D7F4F820F931F0E94CA
:101CB0002A121E830D83DFCF19A218A262E571E0FC
:101CC000C9010E942A12BCCF1E821D8262E571E00A
:101CD000C9010E942A12CFCF8C8D9D8D009709F4E7
:101CE0005BC069817A816115710509F453C04E8D1D
:101CF0005F8D2D813E814217530708F44BC00E942F
:101D00002A128D819E8199A388A31E821D828981BA
:101D10009A81009711F00E94DB1008A119A101150A
:101D2000110509F04AC0198289811FEF8C33B1F483
:101D3000DF92CF92BF92AF929F928F927F926F92DB
:101D400085E491E09F938F93FF92EF920E9463123C
:101D50000FB6F894DEBF0FBECDBF10E08C8D9D8D09
:101D6000009711F00E94DB10111146CF8D89873545
:101D700009F4D9C094F5833409F459C0823509F4C3
:101D80007DC00FEF1FEF2FEF3FEF4FEF5FEF6FEFD4
:101D90007FEF2FC00E94DB1089819A819D8F8C8FED
:101DA0008B819C819F8F8E8F8D819E8199A388A32B
:101DB0001A8219821C821B82A8CF0331110510F0F0
:101DC00003E110E06C8D7D8DA801C7010E943112E6
:101DD000F701E00FF11F1082A7CF823769F0863735
:101DE00081F601E010E030E020E042E050E070E0F9
:101DF00060E00E942E09FDCE8E8991E09093C8028A
:101E00008093EA021092C9021092EB0281E00E94D4
:101E100016086E897F8901E010E0882311F00FEF2A
:101E20001FEF30E020E050E040E08D89E2CF1A8DD6
:101E3000688D8E8991E09093C8028093EA02109297
:101E4000C9021092EB0289ED93E00E946303612FB7
:101E500089ED93E00E94630381E00E94160801E08F
:101E6000811101C000E00195002E000C110B2A8D9C
:101E70003B8D488D598D6E897F89D7CFE88C698DD0
:101E80000E2D162FFE88789481E08093C802F09280
:101E9000EA021092C9021092EB0289ED93E00E94CF
:101EA00063036E2D89ED93E00E94630361E889ED81
:101EB00093E00E94630381E00E941608811183C0B1
:101EC000EFE8F1E03197F1F700C0000063E08F2DFB
:101ED0000E9447071092C4028093C30289ED93E0E9
:101EE0000E941C03F82E89ED93E00E941C033F2CF6
:101EF000212C7101E80EF11CF092BD02E092BC02AF
:101F000089ED93E00E941C038093BE020E151F050D
:101F100009F059C09C013327488D598D6E897F89FE
:101F200001E010E082CFFA8DFCA3088D698DE02ED0
:101F3000F62E1E89789481E08093C8021093EA02FD
:101F40001092C9021092EB02606889ED93E00E9442
:101F50006303602F89ED93E00E9463036CA189ED18
:101F600093E00E94630381E00E94160881112BC058
:101F70008FE891E00197F1F700C0000063E0812F46
:101F80000E9447071092C4028093C30289ED93E038
:101F90000E941C03182F89ED93E00E941C03512E10
:101FA000412C8201080F111D89ED93E00E941C0352
:101FB0008093BE021F771093BD020093BC02E0160F
:101FC000F10609F4A7CF488D598D6E897F890FEFEF
:101FD0001FEF2FEF3FEF29CF01151105E9F30E9405
:101FE000FF008823C9F30E940000F6CF91110C94E2
:101FF000FF0F803219F089508550C8F7089599274E
:10200000882708952F923F924F925F926F927F920E
:102010008F929F92AF92BF92CF92DF92EF92FF92F8
:102020000F931F93CF93DF93CDB7DEB7CA1BDB0BA4
:102030000FB6F894DEBF0FBECDBF09942A88398849
:1020400048885F846E847D848C849B84AA84B98450
:10205000C884DF80EE80FD800C811B81AA81B9815C
:10206000CE0FD11D0FB6F894DEBF0FBECDBFED0170
:102070000895EE0FFF1F0590F491E02D09940F9342
:102080001F93CF93DF938230910510F482E090E0AC
:10209000E091E703F091E80330E020E0B0E0A0E059
:1020A000309799F42115310509F44AC0281B390BE2
:1020B00024303105D8F58A819B816115710589F13C
:1020C000FB0193838283FE0111C040815181028113
:1020D000138148175907E0F04817590799F41097EA
:1020E00061F012960C93129713961C933296CF01BF
:1020F000DF91CF911F910F9108950093E703109303
:10210000E803F4CF2115310551F04217530738F099
:10211000A901DB019A01BD01DF01F801C1CFEF0187
:10212000F9CF9093E8038093E703CDCFFE01E20F50
:10213000F31F819391932250310939832883D7CF9C
:102140002091E5033091E603232B41F42091040113
:10215000309105013093E6032093E50320910201BD
:10216000309103012115310541F42DB73EB740915F
:10217000060150910701241B350BE091E503F09116
:10218000E603E217F307A0F42E1B3F0B28173907CD
:1021900078F0AC014E5F5F4F2417350748F04E0FC3
:1021A0005F1F5093E6034093E503819391939FCF84
:1021B000F0E0E0E09CCFCF93DF930097E9F0FC01E3
:1021C000329713821282A091E703B091E803ED01E8
:1021D00030E020E01097A1F420813181820F931F1D
:1021E0002091E5033091E6032817390709F061C013
:1021F000F093E603E093E503DF91CF910895EA01C0
:10220000CE17DF07E8F54A815B819E014115510534
:10221000B1F7E901FB83EA8349915991C40FD51FB6
:10222000EC17FD0761F4808191810296840F951F60
:10223000E90199838883828193819B838A83F0E07B
:10224000E0E012968D919C9113970097B9F52D912E
:102250003C911197CD010296820F931F2091E503C7
:102260003091E6032817390739F6309751F5109267
:10227000E8031092E703B093E603A093E503BCCF15
:10228000D383C28340815181840F951FC817D9071A
:1022900061F44E5F5F4F88819981480F591F5183C8
:1022A00040838A819B81938382832115310509F0C4
:1022B000B0CFF093E803E093E7039ECFFD01DC018C
:1022C000C0CF13821282D7CFB0E0A0E0EAE6F1E1FE
:1022D0000C9404108C01009751F4CB010E943F1024
:1022E0008C01C801CDB7DEB7E0E10C942010FC01F1
:1022F000E60FF71F9C0122503109E217F30708F49B
:102300009DC0D901CD91DC911197C617D70798F0E0
:10231000C530D10530F3CE0104978617970708F32F
:10232000C61BD70B2297C193D1936D937C93CF019A
:102330000E94DB10D6CF5B01AC1ABD0A4C018C0E9B
:102340009D1EA091E703B091E803512C412CF12C84
:10235000E12C109731F58091E5039091E603881503
:10236000990509F05CC04616570608F058C08091E0
:10237000020190910301009741F48DB79EB74091FF
:10238000060150910701841B950BE817F90708F027
:1023900055C0F093E603E093E503F9017183608390
:1023A000A0CF8D919C91119712966C9012971396D5
:1023B0007C901397A815B90559F56C0142E0C40E3D
:1023C000D11CCA14DB0420F1AC014A195B09DA0103
:1023D0001296159780F06282738251834083D901EF
:1023E0006D937C93E114F10471F0D7011396FC9383
:1023F000EE93129776CF22968C0F9D1FF901918351
:102400008083F301EFCFF093E803E093E70369CF14
:102410004816590608F42C017D01D3019ACFCB014F
:102420000E943F107C01009749F0AE01B8010E9464
:102430002112C8010E94DB10870153CF10E000E099
:1024400050CFFB01DC0102C001900D924150504081
:10245000D8F70895FB01DC0101900D920020E1F70F
:102460000895FB01DC014150504048F001900D926D
:102470000020C9F701C01D9241505040E0F7089577
:10248000AEE0B0E0E6E4F2E10C9410100D891E8994
:1024900086E08C831A8309838FEF9FE79E838D8369
:1024A000AE01475E5F4F6F89788DCE0101960E9425
:1024B0007C122F813885020F131FF80110822E968F
:1024C000E4E00C942C10AEE0B0E0E9E6F2E10C940C
:1024D000121085E08C838B899C899A838983AE0155
:1024E000495E5F4F6D897E89CE0101960E94E1159C
:1024F0002E96E2E00C942E10ABE0B0E0E2E8F2E1C0
:102500000C9402107C013B018A01FC0117821682A7
:10251000838181FFC8C1CE0101965C01F7019381DF
:10252000F30193FD859193FF81913F01882309F485
:1025300053C1853239F493FD859193FF81913F0119
:10254000853229F4B70190E00E944317E7CF912C20
:10255000212C312CFFE1F31538F08B3211F190F47E
:10256000803209F1833229F137FC3CC020ED280F7D
:102570002A3050F536FE20C08AE0989E200D1124A6
:10258000922E06C08D3291F0803371F7689430F846
:10259000F30193FD859193FF81913F018111DACF82
:1025A00021C0689431F8689432F8F2CF689433F817
:1025B000EFCF689434F8ECCFEAE02E9E200D112482
:1025C000222E689435F8E4CF8E3229F436FC04C10B
:1025D000689436F8DDCF8C3619F4689437F8D8CF84
:1025E0008836B1F2982F9F7D95549330E0F0833672
:1025F000A1F18337C1F1833509F063C02801F2E00E
:102600004F0E511CF801C080D180692D70E036FC5E
:1026100002C06FEF7FEFC6010E94F1164C01689473
:1026200037F882010AC00C5F1F4FFFE3F98388244B
:102630008394912C6501E89437F833FE2DC0522C19
:102640008114910471F5552009F468CFB70180E237
:1026500090E00E9443175A94F6CFF8018081898355
:102660000E5F1F4FE4CF2801F2E04F0E511CF8011E
:10267000C080D180692D70E036FC02C06FEF7FEF23
:10268000C6010E94FC164C018201D5CFB70180E241
:1026900090E00E9443172A942814190409F0B0F717
:1026A000CECFF60137FC859137FE81916F01B701DE
:1026B00090E00E94431751105A94F1E08F1A91084C
:1026C000BFCF843619F0893609F077C0F80137FE9C
:1026D0006BC060817181828193810C5F1F4FF32DEC
:1026E000FF763F2E97FF09C0909580957095619574
:1026F0007F4F8F4F9F4F689437F82AE030E0A50155
:102700000E948B17C82ECA188C2C432C36FE0CC086
:10271000E89440F8C91440F434FE05C032FC03C00C
:10272000F32DFE7E4F2E892C44FE95C0FE01EC0D4C
:10273000F11D8081803309F087C0242D297E422E2F
:10274000842D8870582E43FC95C040FE8FC09C2C71
:10275000821418F42C0C922C981844FE91C0B701E6
:1027600080E390E00E94431742FE09C088E790E0B2
:1027700041FE02C088E590E0B7010E944317C914EA
:1027800008F48AC0CA94D12C9FEFC91AD90ACA0C7E
:10279000DB1CF60182916F01B70190E00E944317A4
:1027A000AC14BD04B1F74FCF60817181072E000CCE
:1027B000880B990B0E5F1F4F92CFD32CE894D4F85F
:1027C0002AE030E0853739F1232D297FD22E8F364C
:1027D00001F148F48835A9F0F701868197812B969D
:1027E000E2E10C941E10803749F08837A9F7D4FE37
:1027F00002C06894D2F820E130E00DC06894D4F8AB
:10280000F6CF34FE03C0822F8660D82E20E132E05E
:1028100002C028E030E0F801D7FE0FC0608171816E
:10282000828193810C5F1F4FA5010E948B17C82ED8
:10283000CA183D2CE89437F867CF6081718190E029
:1028400080E00E5F1F4FF0CF42FC02C0839478CF30
:102850008394839475CF842D867809F471CFF6CF55
:10286000B70180E290E00E94431783948214C0F382
:10287000512C73CF522C5818821408F46ECFF8CF15
:10288000842D867809F47BCF8BE241FE80E247FC01
:102890008DE2B70190E071CFB70180E390E00E9434
:1028A00043179A946CCF8FEF9FEF99CF20FD09C00B
:1028B000FC0123FD05C022FF02C0738362835183A4
:1028C0004083089544FD17C046FD1DC0DB01FC0197
:1028D000AA0FBB1FEE1FFF1F1094D1F76A0F7B1FBB
:1028E0008E1F9F1F660F771F881F991F620F711D14
:1028F000811D911D089533E0660F771F881F991F72
:102900003150D1F7F3CF34E0F7CF0F931F93CF932C
:10291000DF938C01C8010E940717EC0197FD08C0E6
:102920000E94F60F892BB1F7B801CE010E947317F0
:10293000CE01DF91CF911F910F9108958F929F92B9
:10294000AF92BF92EF92FF920F931F93CF93DF93BB
:102950008C01D62F7A01B22E0E9407179C013327D3
:102960002B32310529F02D323105A9F46894B7F8DE
:10297000D15061F480E0DF91CF911F910F91FF90D2
:10298000EF90BF90AF909F908F900895C8010E94E4
:10299000071797FDEFCFCB2DCD7F2B2D2073F9F4AB
:1029A0008033E9F4AA24AA94AD0E89F0C8010E94EC
:1029B000071797FD0CC0282F2F7D283561F4C264BE
:1029C000D25029F0C8010E94071797FF08C0812C38
:1029D000912C54011BC0B6FE2BC0C260DA2D812C95
:1029E000912C540120ED280F283028F1C4FD09C096
:1029F0002A3008F1C6FF05C02F7D3FEE320F36307A
:102A0000C8F0B8010E947317C1FFB4CFC7FF08C058
:102A1000B094A09490948094811C911CA11CB11C32
:102A20002C2FB501A401C7010E94561481E0A3CF49
:102A3000C261D4CF27504C2FC501B4010E9462144B
:102A40004B015C01C260D15009F3C8010E94071715
:102A500097FFC8CFD9CFA0E2B0E0E1E3F5E10C9455
:102A600007105C01962E7A01CE0101966C0180E27E
:102A7000F60111928A95E9F7F501B381890130E0F9
:102A800020E0712C812CA0E041E050E0F801B3FD82
:102A90008591B3FF8191982F8F01811107C010E0BC
:102AA00000E0C801A096EDE00C9423108E3519F4D7
:102AB0002115310541F1A21713064CF48D3549F16A
:102AC0008D3229F4811006C0882483941DC088208B
:102AD00009F464C0E92FE695E695E695EC0DFD2D29
:102AE000F11D892F8770BA0101C0660F8A95EAF738
:102AF0008081682B6083791651F0971510F49F5FE1
:102B0000E9CF9150E7CFA1E02F5F3F4FBFCF812C9E
:102B1000FBCF882019F08E8180628E83AA2359F022
:102B2000F6019E012F5D3F4F808180958083319615
:102B3000E217F307C9F788248394C5010E94071799
:102B400097FD16C0E82FE695E695E695EC0DFD2D70
:102B5000F11D208130E0AC014770552702C035954A
:102B600027954A95E2F720FD06C0B5010E9473172C
:102B7000882069F094CFE114F10429F0F7018083F3
:102B8000C70101967C019A94812C9110D6CFE11453
:102B9000F10409F486CFF701108283CFE82FE69580
:102BA000E695E695EC0DFD2DF11D982F9770BA0175
:102BB00001C0660F9A95EAF79081692B6083782EA1
:102BC000A3CFB0E0A0E0E7EEF5E10C9405106C01B6
:102BD000EB015A01FC0117821682512CF601E380A9
:102BE000FE01E3FC8591E3FE8191182FEF0188231C
:102BF000E9F090E00E94F60F892B21F0C6010E94B7
:102C00008514ECCF153241F4FE01E3FC1591E3FE8F
:102C10001191EF01153269F4C6010E94071797FD63
:102C20008EC01817D9F2B6010E947317852D90E057
:102C30008AC000E01A3231F4E3FC1591E3FE1191F1
:102C4000EF0101E0F12C20ED210F2A3048F101FFC6
:102C500037C0FF2059F31836B1F11C3609F43DC0D6
:102C6000112321F3612F70E088E690E00E94E616C0
:102C7000892BE1F2912C812C00FD06C0F5018080AA
:102C80009180C50102965C011E3679F5F6014681F8
:102C9000578170E060E0202FC4010E9456149ECF3F
:102CA00002606F2D70E090E080E040E20E946214CC
:102CB000F62EFE01E3FC1591E3FE1191EF01C3CF67
:102CC000FF24FA94C8CFFE01E3FC1591E3FE1191B5
:102CD000EF01183609F0C4CF08600460FE01E3FC80
:102CE0001591E3FE1191EF01BBCF1336C1F401FD45
:102CF00002C0FF24F394C6010E94071797FD1FC06E
:102D00008114910429F0F4018083C40101964C01DF
:102D1000FA94F110F0CF00FD61CF53945FCF1B35D3
:102D2000B9F49E01A4016F2DC6010E942B15EC0180
:102D3000892B89F7F6018381807309F477CF8FEFB0
:102D40009FEF511073CFCDB7DEB7EFE00C94211099
:102D5000C6010E94851497FDF2CF1F36A9F130F409
:102D6000143641F0193639F0006405C01337B9F054
:102D70001537D1F70062202FA4016F2DC6010E94E4
:102D80009E148111C8CFD6CF8114910429F0F4018B
:102D90006082C40101964C01FA94FF2071F0C601D3
:102DA0000E9407173C0197FD08C00E94F60F892B6F
:102DB00059F3B601C3010E9473178114910409F4F9
:102DC000AACFF4011082A7CF0061D5CFFC010590F6
:102DD000061621F00020D9F7C00108953197CF01E0
:102DE0000895FC010590615070400110D8F780955E
:102DF00090958E0F9F1F0895FC01615070400190C7
:102E00000110D8F7809590958E0F9F1F0895CF934E
:102E1000DF93EC012B8120FF1AC026FF0CC02F7B13
:102E20002B838E819F8101969F838E838A8190E080
:102E3000DF91CF91089522FF18C0E881F981808148
:102E4000082E000C990B009729F420622B838FEF3A
:102E50009FEFEECF3196F983E8832E813F812F5F7C
:102E60003F4F3F832E839927E3CFEA85FB85099562
:102E700097FFF3CF2B81019621F080E2822B8B8389
:102E8000E6CF80E1FBCF0F931F93CF93DF93182FF3
:102E9000092FEB018B8181FD09C01FEF0FEF812FFF
:102EA000902FDF91CF911F910F91089582FF14C051
:102EB0002E813F818C819D81281739073CF4E88160
:102EC000F981CF0101969983888310838E819F8138
:102ED00001969F838E83E3CFE885F985812F09953D
:102EE000892BA1F3DACFFB01238120FF11C026FD3E
:102EF0000FC08F3F980771F082832F7D206423835A
:102F000026813781215031093783268399270895F7
:102F10008FEF9FEF0895FA01AA27283051F1203151
:102F200081F1E8946F936E7F6E5F7F4F8F4F9F4F5D
:102F3000AF4FB1E03ED0B4E03CD0670F781F891F9F
:102F40009A1FA11D680F791F8A1F911DA11D6A0F6D
:102F5000711D811D911DA11D20D009F468943F9120
:102F60002AE0269F11243019305D3193DEF6CF011F
:102F70000895462F4770405D4193B3E00FD0C9F7E5
:102F8000F6CF462F4F70405D4A3318F0495D31FD52
:102F90004052419302D0A9F7EACFB4E0A6959795A5
:102FA000879577956795BA95C9F70097610571057B
:102FB00008959B01AC010A2E0694579547953795C5
:102FC0002795BA95C9F7620F731F841F951FA01D1F
:102FD0000895F894FFCF08800000E9038000000006
:102FE000000035019500C2008701F300D100E50023
:102FF000000000006303360392030C032F031C033D
:103000000D033C25632025642025642025642025AC
:10301000643E0041565220495350003C2563202510
:0A302000642025642025643E0000B2
:107E0000112484B714BE81FFF0D085E080938100F7
:107E100082E08093C00088E18093C10086E0809377
:107E2000C20080E18093C4008EE0C9D0259A86E02C
:107E300020E33CEF91E0309385002093840096BBD3
:107E4000B09BFECF1D9AA8958150A9F7CC24DD24C4
:107E500088248394B5E0AB2EA1E19A2EF3E0BF2EE7
:107E6000A2D0813461F49FD0082FAFD0023811F036
:107E7000013811F484E001C083E08DD089C08234E0
:107E800011F484E103C0853419F485E0A6D080C0E4
:107E9000853579F488D0E82EFF2485D0082F10E0AE
:107EA000102F00270E291F29000F111F8ED06801E7
:107EB0006FC0863521F484E090D080E0DECF843638
:107EC00009F040C070D06FD0082F6DD080E0C81688
:107ED00080E7D80618F4F601B7BEE895C0E0D1E017
:107EE00062D089930C17E1F7F0E0CF16F0E7DF06D8
:107EF00018F0F601B7BEE89568D007B600FCFDCFD4
:107F0000A601A0E0B1E02C9130E011968C91119780
:107F100090E0982F8827822B932B1296FA010C0160
:107F200087BEE89511244E5F5F4FF1E0A038BF0790
:107F300051F7F601A7BEE89507B600FCFDCF97BE46
:107F4000E89526C08437B1F42ED02DD0F82E2BD052
:107F50003CD0F601EF2C8F010F5F1F4F84911BD097
:107F6000EA94F801C1F70894C11CD11CFA94CF0C13
:107F7000D11C0EC0853739F428D08EE10CD085E9AC
:107F80000AD08FE07ACF813511F488E018D01DD067
:107F900080E101D065CF982F8091C00085FFFCCF94
:107FA0009093C60008958091C00087FFFCCF809118
:107FB000C00084FD01C0A8958091C6000895E0E648
:107FC000F0E098E1908380830895EDDF803219F02E
:107FD00088E0F5DFFFCF84E1DECF1F93182FE3DFCA
:107FE0001150E9F7F2DF1F91089580E0E8DFEE27F6
:047FF000FF270994CA
:027FFE00040479
:00000001FF
