:020000040000FA
:100000000C9462000C948A000C948A000C948A0070
:100010000C948A000C948A000C948A000C948A0038
:100020000C948A000C948A000C948A000C948A0028
:100030000C948A000C948A000C948A000C948A0018
:100040000C94FD050C948A000C94CB050C94A5052A
:100050000C948A000C948A000C948A000C948A00F8
:100060000C9447060C948A0000000000250028002C
:100070002B000000000023002600290000000008DB
:10008000000201000003040700000000000000005F
:1000900000000000240027002A00010204081020AC
:1000A000408001020408102001020408102004040A
:1000B0000404040404040202020202020303030310
:1000C0000303660711241FBECFEFD8E0DEBFCDBF0C
:1000D00011E0A0E0B1E0E8EFF7E102C005900D9279
:1000E000AE32B107D9F723E0AEE2B1E001C01D9214
:1000F000AE39B207E1F710E0C2E6D0E004C02197C4
:10010000FE010E94F40BC136D107C9F70E949F0778
:100110000C94FA0B0C9400000895E091E902F09120
:10012000EA02309729F01092F0021092EF0209943F
:100130000895CF93DF93AC01E091E702F091E802DC
:100140003097F1F09091F2028091F1029817C0F08F
:1001500090E0292F30E02617370754F4D901AE5C20
:10016000BE4F240F351FE90128812C939F5FF1CFEB
:100170001092F2026093F102CB01DF91CF910994CA
:10018000DF91CF910895AF92BF92CF92DF92EF921D
:10019000FF920F931F93CF93DF936C017B018B0131
:1001A000040F151FEB015E01AE18BF08C017D10781
:1001B00059F06991D601ED91FC910190F081E02D0B
:1001C000C6010995892B79F7C501DF91CF911F9160
:1001D0000F91FF90EF90DF90CF90BF90AF90089578
:1001E000FC01538D448D252F30E0842F90E0821B3D
:1001F000930B541710F0CF96089501970895FC01C2
:10020000918D828D981761F0A28DAE0FBF2FB11D19
:100210005D968C91928D9F5F9F73928F90E0089571
:100220008FEF9FEF0895FC01918D828D981731F02B
:10023000828DE80FF11D858D90E008958FEF9FEF7F
:100240000895FC01918D228D892F90E0805C9F4F55
:10025000821B91098F739927089585EF92E00E9480
:10026000210121E0892B09F420E0822F089580E00C
:1002700090E0892B29F00E942D0181110C9400003F
:100280000895FC01A48DA80FB92FB11DA35ABF4F2B
:100290002C91848D90E001968F739927848FA68985
:1002A000B7892C93A089B1898C91837080648C93D9
:1002B000938D848D981306C00288F389E02D808188
:1002C0008F7D80830895EF92FF920F931F93CF93BA
:1002D000DF93EC0181E0888F9B8D8C8D98131AC081
:1002E000E889F989808185FF15C09FB7F894EE8968
:1002F000FF896083E889F9898081837080648083C5
:100300009FBF81E090E0DF91CF911F910F91FF900F
:10031000EF900895F62E0B8D10E00F5F1F4F0F73B7
:100320001127E02E8C8D8E110CC00FB607FCFACF72
:10033000E889F989808185FFF5CFCE010E944101CE
:10034000F1CFEB8DEC0FFD2FF11DE35AFF4FF08243
:100350009FB7F8940B8FEA89FB8980818062CFCFA9
:10036000682F85EF92E00C946301CF93DF93EC014B
:10037000888D8823B9F0AA89BB89E889F9898C918D
:1003800085FD03C0808186FD0DC00FB607FCF7CF49
:100390008C9185FFF2CF808185FFEDCFCE010E9449
:1003A0004101E9CFDF91CF910895833081F028F4A6
:1003B000813099F08230A9F008958730A9F0883013
:1003C000C9F08430B1F4809180008F7D03C08091AA
:1003D00080008F7780938000089584B58F7784BDE7
:1003E000089584B58F7DFBCF8091B0008F77809387
:1003F000B00008958091B0008F7DF9CF1F93CF9307
:10040000DF93282F30E0F901E458FF4F8491F90180
:10041000E656FF4FD491F901E255FF4FC491CC232A
:10042000A9F0162F81110E94D501EC2FF0E0EE0FFC
:10043000FF1FE859FF4FA591B4918FB7F894EC9145
:10044000111108C0D095DE23DC938FBFDF91CF91CF
:100450001F910895DE2BF8CFCF93DF9390E0FC013E
:10046000E656FF4F249182559F4FFC0184918823CB
:10047000D1F090E0880F991FFC01E057FF4FA59144
:10048000B491FC01E859FF4FC591D49161110EC0A0
:100490009FB7F8948C91E22FE0958E238C9328815E
:1004A000E223E8839FBFDF91CF9108958FB7F8943F
:1004B000EC91E22BEC938FBFF6CF3FB7F89480918D
:1004C000C7019091C801A091C901B091CA0126B598
:1004D000A89B05C02F3F19F00196A11DB11D3FBF7C
:1004E000BA2FA92F982F8827BC01CD01620F711D4B
:1004F000811D911D42E0660F771F881F991F4A9545
:10050000D1F708958F929F92AF92BF92CF92DF92D0
:10051000EF92FF924B015C010E945D026B017C0136
:100520000E945D026C197D098E099F09683E734027
:1005300081059105A8F321E0821A9108A108B1086C
:1005400088EEC80E83E0D81EE11CF11C81149104D2
:10055000A104B10429F7FF90EF90DF90CF90BF90F6
:10056000AF909F908F9008951F93CF93DF93182F94
:10057000C3E0D0E061E0812F0E94FE016EE170E0F7
:1005800080E090E00E94820260E0812F0E94FE01E4
:100590006EE170E080E090E00E948202219751F7C6
:1005A000DF91CF911F91089520917801260F332775
:1005B000331F21323105ECF420919C01FC0190E0C5
:1005C00080E0243069F082E00895A09178012191C3
:1005D000AC01485A5E4FA40FB52FB11D2C93019664
:1005E000861798F380917801680F6093780180E016
:1005F000089581E0089510929C0181E080939E010E
:1006000010929D0161E082E10E94FE0161E083E1C0
:100610000E94FE01E9EBF0E080818E7F8083808183
:100620008D7F808388E48093B80085E48093BC004C
:1006300008950895E091F2028091F102E81730F4F4
:10064000F0E0EE5CFE4F808190E008958FEF9FEF29
:1006500008959091F2028091F1022FEF3FEF9817E9
:1006600048F4E92FF0E0EE5CFE4F208130E09F5F20
:100670009093F202C90108958091F1029091F202E3
:10068000891B990B0895CF93DF93CB01EA01642F67
:100690000E94D402CE01DF91CF910895CF93DF93D2
:1006A0001F92CDB7DEB7698361E0CE0101960E944B
:1006B000D40281E090E00F90DF91CF91089590E017
:1006C00080E008958091E3029091E4020196909376
:1006D000E4028093E30285E10C94B0012091D601FD
:1006E0003091D7018091E1029091E20220323105F0
:1006F00011F4807F08952034310511F4807E08952F
:100700002038310511F4807C08952115314009F419
:100710008078089585EF92E00E942101892BD1F322
:1007200085EF92E00E94FF000895CF93C82F0E94AA
:100730008A03803251F484E10E94B0018C2F0E9420
:10074000B00180E1CF910C94B0018091E3029091CF
:10075000E40201969093E4028093E30285E1F2CFF4
:100760000E948A03803231F484E10E94B00180E16A
:100770000C94B0018091E3029091E4020196909371
:10078000E4028093E30285E1F3CF0F931F93CF93AD
:10079000DF938C01CEEDD1E0CE018E5D91408017CC
:1007A000910724F40E948A038993F6CFDF91CF91B9
:1007B0001F910F9108950F931F93CF93DF932FB73E
:1007C000F8948091C3019091C401A091C501B091AA
:1007D000C6012FBF40912E0150912F016091300131
:1007E000709131018C019D01041B150B260B370BF9
:1007F000B901A801483251056105710508F44DC0E1
:1008000080932E0190932F01A0933001B09331017A
:100810008091010190910001813C20F0919590938D
:10082000000102C08032D0F3C0910001C80FC09314
:10083000010161E089E00E942C02C11108C060E062
:1008400089E0DF91CF911F910F910C94FE01CF3F72
:1008500011F461E0F5CFE5E8F0E0E491E33039F13F
:1008600038F4E130B1F0E230E9F0C7FDF2CFE7CF84
:10087000E73041F1E83071F1E430B9F78091800060
:10088000806280938000D0E0D0938B00C0938A0078
:1008900004C084B5806884BDC7BDDF91CF911F912E
:1008A0000F91089584B5806284BDC8BDF6CF809154
:1008B0008000806880938000D0E0D0938900C0934E
:1008C0008800EBCF8091B00080688093B000C09327
:1008D000B300E3CF8091B00080628093B000C093FA
:1008E000B400DBCF8EBD00000DB407FEFDCF8EB58A
:1008F00008951F93CF93DF93162FD42FC22F0E94FA
:100900007204812F0E9472048D2F0E9472048C2F1A
:10091000DF91CF911F910C947204EF92FF920F938D
:100920001F93CF93DF93EC018B01CB010E94C50392
:1009300060E087E00E94FE018EEDE82E81E0F82E57
:100940000C0F1D1FC017D10781F0F70121917F0106
:100950004C2F6D2F80EC0E9479046DE270E080E0F6
:1009600090E00E9482022196EDCF61E087E00E9434
:10097000FE0180E1DF91CF911F910F91FF90EF90E9
:100980000895CF93DF93D82FC92F60E087E00E94AE
:10099000FE0120E04D2F6C2F8CE40E9479046EE163
:1009A00070E080E090E00E94820261E087E0DF91E9
:1009B000CF910C94FE01CF93DF9385ED8093BC0023
:1009C0008091540190915501A0915601B091570129
:1009D0000796A11DB11D23E0B695A795979587951C
:1009E0002A95D1F72091BC0024FD03C010929C01F0
:1009F00036C040915401509155016091560170915B
:100A00005701452B462B472B69F30097A105B105EC
:100A100041F025E32A95F1F700000197A109B109FA
:100A2000E1CF8091530191E0909352018823B9F076
:100A3000C091B800D091BA008091BC008A7B8093AD
:100A4000BC0060E082E10E94FE0160E083E10E9460
:100A5000FE010E94FB02D093BA00C093B800DF9160
:100A6000CF9108954F925F926F927F92AF92BF9213
:100A7000CF92DF92FF920F931F93CF93DF93CDB767
:100A8000DEB7C154D1090FB6F894DEBF0FBECDBF9B
:100A90005C01F82E6E0182E2C80ED11C8601802F07
:100AA0008C198F1540F482E993E00E942903F80124
:100AB00081938F01F4CFF12C8AE0482E512C612CC8
:100AC000712C8F2D90E08A159B0554F58C0D9D1D82
:100AD000FC01208130E050E040E019A28E010F5D62
:100AE0001F4FCA01B901A30192010E94D20B605DA0
:100AF000F80162938F01211531054105510589F7F0
:100B0000309761F001900020E9F73197AF01401B69
:100B1000510BB80185EF92E00E94C300F394D1CF4E
:100B2000CF5BDF4F0FB6F894DEBF0FBECDBFDF91B6
:100B3000CF911F910F91FF90DF90CF90BF90AF901A
:100B40007F906F905F904F9008951F920F920FB615
:100B50000F9211242F933F934F935F936F937F9343
:100B60008F939F93AF93BF93EF93FF9385EF92E0A3
:100B70000E944101FF91EF91BF91AF919F918F91A1
:100B80007F916F915F914F913F912F910F900FBE89
:100B90000F901F9018951F920F920FB60F9211246D
:100BA0002F938F939F93EF93FF93E0910503F09121
:100BB00006038081E0910B03F0910C0382FD1BC0C2
:100BC000908180910E038F5F8F7320910F038217A6
:100BD00041F0E0910E03F0E0EB50FD4F958F8093D4
:100BE0000E03FF91EF919F918F912F910F900FBE68
:100BF0000F901F9018958081F4CF1F920F920FB61F
:100C00000F9211242F933F938F939F93AF93BF9392
:100C10008091C3019091C401A091C501B091C6011A
:100C20003091C20123E0230F2D3758F50196A11D05
:100C3000B11D2093C2018093C3019093C401A0937E
:100C4000C501B093C6018091C7019091C801A091E0
:100C5000C901B091CA010196A11DB11D8093C701C0
:100C60009093C801A093C901B093CA01BF91AF91FD
:100C70009F918F913F912F910F900FBE0F901F90DA
:100C8000189526E8230F0296A11DB11DD2CF1F9201
:100C90000F920FB60F9211242F933F934F935F93B0
:100CA0006F937F938F939F93AF93BF93EF93FF9334
:100CB0008091B900887F803609F44AC0F0F5883207
:100CC00009F4A7C018F5803109F49BC0B8F4882353
:100CD00009F4F9C0883009F494C0FF91EF91BF91F5
:100CE000AF919F918F917F916F915F914F913F91C4
:100CF0002F910F900FBE0F901F901895883109F417
:100D000088C0803251F780939B0114C0803409F46D
:100D10009DC040F48033B9F38833F9F680939B018A
:100D200085ECB0C0803509F485C0883509F496C0DB
:100D3000883499F60E94DB04D0CF883909F48CC03E
:100D400038F5883729F050F4883611F0803729F6C5
:100D500083E080939C0110929A0157C0883809F46F
:100D60007BC0803919F0803809F0B7CF80919A01A3
:100D7000803208F071C0E0919A0181E08E0F80937B
:100D80009A018091BB00F0E0E658FE4F80833DC0A1
:100D9000803B39F0E0F4803A09F479C0883A09F0F0
:100DA0009CCF84E080939C0110927901109278018D
:100DB000E091ED02F091EE020995809178018111A8
:100DC0000FC081E0809378011092580109C0803CE7
:100DD00009F4A6CF883C09F4A3CF883B09F07DCF66
:100DE000E091790181E08E0F80937901F0E0E85A7B
:100DF000FE4F80818093BB009091790180917801B2
:100E000029C08091C1018093BB0085EC8093BC0018
:100E100064CF9091C0018091BF01981758F5E0917F
:100E2000C00181E08E0F8093C001F0E0E156FE4FDB
:100E30008081E9CFE091C00181E08E0F8093C001F5
:100E40008091BB00F0E0E156FE4F80839091C0019D
:100E50008091BF019817C8F285E8D8CFE091C00112
:100E600081E08E0F8093C0018091BB00F0E0E156DD
:100E7000FE4F808380919E0181115CCF81E0809341
:100E80009D0184EA8093BC0010929C0126CF85ECE2
:100E90008093BC0010929C0180919A01803230F4C2
:100EA000E0919A01F0E0E658FE4F108260919A01BD
:100EB00070E0E091EB02F091EC028AE791E0099595
:100EC00010929A010ACF10929B0134CFE5EFF2E025
:100ED0001382128288EE93E0A0E0B0E084839583D1
:100EE000A683B78326E031E03183208325EC30E010
:100EF0003587248724EC30E03787268720EC30E0E4
:100F0000318B208B21EC30E0338B228B22EC30E0D4
:100F1000358B248B26EC30E0378B268B118E128E8E
:100F2000138E148EE2E9F3E0138212828483958398
:100F3000A683B78388E191E09183808308957894B4
:100F400084B5826084BD84B5816084BD85B58260CE
:100F500085BD85B5816085BD80916E00816080937F
:100F60006E001092810080918100826080938100E8
:100F700080918100816080938100809180008160F8
:100F8000809380008091B10084608093B100809153
:100F9000B00081608093B00080917A00846080937B
:100FA0007A0080917A00826080937A0080917A0042
:100FB000816080937A0080917A00806880937A00C3
:100FC0001092C10061E086E00E942C0261E085E0A1
:100FD0000E942C02EFE7F0E08491EDE9F0E0D4917B
:100FE000E1EBF0E0C491CC2309F4B7C081110E9479
:100FF000D501EC2FF0E0EE0FFF1FEE58FF4FA5914B
:10100000B491EC91ED2309F4A8C081E090E09093B5
:10101000F4028093F3028091F3029091F40200971E
:1010200009F04EC361E086E00E94FE01E0910503F5
:10103000F091060382E08083E0910103F0910203C6
:101040001082E0910303F091040387E680831092FD
:101050000D03E0910903F0910A0386E08083E0919B
:101060000703F0910803808180618083E09107038A
:10107000F0910803808188608083E0910703F091FC
:101080000803808180688083E0910703F091080362
:1010900080818F7D808361E087E00E942C0287E061
:1010A00090E00E94B40261E088E00E942C0288E097
:1010B00090E00E94B40261E089E00E942C0289E085
:1010C00090E00E94B4020BE8A02EBB24B3948824C5
:1010D0008394912C98EB492E90E0592E24EA622EAD
:1010E00020E0722EC091E502D091E60261E02097E7
:1010F00009F460E087E00E94FE010091E302109194
:10110000E40261E00115110509F460E088E00E9445
:10111000FE010E94DB0385EF92E00E942101892BF2
:1011200009F30E948A03813509F46DC208F0A6C054
:10113000813409F430C1B0F4803309F413C1813330
:1011400009F417C1803209F0AEC20F5F1F4F109330
:10115000E4020093E30285E1E4C11092F4021092EC
:10116000F30259CF853409F42DC1803509F42FC11C
:10117000823409F098C284E190E00E94C503209176
:10118000DE012093CB018091DF018093CC0180911F
:10119000E0018093CD018091E1018093CE018091A7
:1011A000E2018093CF018091E3018093D00180918F
:1011B000E4018093D1018091E5018093D201809177
:1011C000E6018093D3018091E80190E0982F882771
:1011D0003091E901830F911D9093D5018093D40143
:1011E0008091EA0190E0982F88273091EB01830FDE
:1011F000911D9093D7018093D6018091EC0190E0EE
:10120000982F88273091ED01830F911D9093D9017C
:101210008093D8018091EE0190E0B0E0A0E0BA2F79
:10122000A92F982F88273091EF01830F911DA11DC1
:10123000B11DDC01992788274091F00150E0542F1F
:101240004427052E000C660B770B840F951FA61FF5
:10125000B71F3091F101830F911DA11DB11D809326
:10126000DA019093DB01A093DC01B093DD0181E012
:10127000203E08F480E08093E00278C0813609F4D3
:101280001EC1C0F4863509F4AFC1803609F415C11A
:10129000853509F008C20E948A03C82F0E948A037C
:1012A00090E0982F88278C0F911D9093E2028093F5
:1012B000E1025CC0843709F440C1853709F4D2C12A
:1012C000843609F0F0C10E948A03C82FD0E0DC2FD9
:1012D000CC270E948A03C80FD11D0E948A0386343E
:1012E00009F0F4C0CE010E94C5030E948A03803237
:1012F00009F02BCF84E10E94B0010E946E036C01C3
:101300003EEDE32E31E0F32EC7018E5D91408C1748
:101310009D070CF0D7C00E946E038C159D0531F01F
:10132000C6010E94C1040E946E036C010091E1029B
:101330001091E202F7012081402F612F80E40E948A
:101340007904F7012181402F612F88E40E947904FC
:101350000F5F1F4F1093E2020093E102F2E0EF0EE5
:10136000F11CD2CF1092E4021092E3020E94B0036B
:10137000B9CE0E948A03803209F0E7CE84E10E9450
:10138000B00147E050E066E271E085EF92E00E9434
:10139000C30080E1C6C00E948A03813879F020F43E
:1013A000803841F080E007C0823851F08339D1F7AE
:1013B00083E501C082E00E94950394CE81E0FBCFDB
:1013C00082E1F9CF85E090E00E94C503CFCFCD2B1D
:1013D00069F66091E0028AE00E94FE0161E08AE025
:1013E0000E942C02CFB7F8948091DF02811125C0B2
:1013F000F2018491F3019491E82FF0E0EE0FFF1FCA
:10140000E057FF4FA591B4918C91982321F461E0AE
:101410008AE00E94FE0161E08AE00E942C028CB505
:1014200080618CBD8CB580648CBD61E08DE00E94D4
:101430002C0261E08BE00E942C028091DF028F5F22
:101440008093DF02CFBF8091DE02882351F08FB7F7
:10145000F8949091DE02913021F49DB39DB39DBB31
:101460008FBF83E58CBD1DBC60E08DE00E94FE0156
:1014700064E170E080E090E00E948202C091E002AE
:1014800061E06C278AE00E94FE01C5010197F1F737
:101490006C2F8AE00E94FE0162E370E080E090E041
:1014A0000E94820220E040E063E58CEA0E94790419
:1014B0009092E6028092E50259CF0E948A030E9430
:1014C0008A0354CFC6010E94C10463CF853409F05A
:1014D00089C08091D8019091D9018C179D0790F017
:1014E0000091E1021091E202000F111FC132D105FB
:1014F000D8F060E270E0C8010E948D04005E1F4FCA
:10150000A097F4CF0F5F1F4F1093E4020093E30204
:10151000C1E10E948A03803269F484E10E94B00133
:101520008C2F0E94B001DECDBE01C8010E948D0447
:10153000C0E1EFCF0E946203D5CD0E948A03082F3D
:101540000E948A03F82E0E948A03D82F0E948A03E1
:10155000803219F00E946203C5CD10E0102F0027E1
:101560000F0D111D84E10E94B001D63419F5F12C44
:10157000E12CE016F1060CF00CCFC091E102D09105
:10158000E20220E04C2F6D2F80E20E9479040E943D
:10159000B00120E04C2F6D2F88E20E9479040E9458
:1015A000B0012196D093E202C093E10282E0E80EFE
:1015B000F11CDFCFD534B1F4C091E102D091E20249
:1015C000CC0FDD1F0C0F1D1F0C171D0709F4E1CEFA
:1015D0002FEF4C2F6D2F80EA0E9479040E94B001FA
:1015E0002196F2CF81E19DCF84E090E00E94C50377
:1015F0002091E1014091E0016091DF018091DE01E5
:101600000E947904D8CE1092E4021092E3029FB7B0
:10161000F8948091DF02882319F081508093DF02D3
:101620008091DF02811105C08CB58F7B8CBD10923B
:10163000DE029FBF60E08BE00E942C0260E08DE044
:101640000E942C026091E00281E068278AE00E94FB
:10165000FE0160E08AE00E942C021092E6021092E5
:10166000E50284CE0E948A03803209F06ECD84E1C7
:101670000E94B00120E040E060E080E30E94790435
:101680000E94B00120E041E060E080E30E94790424
:101690000E94B00120E042E060E080E30E94790413
:1016A0000E94B00176CE0F5F1F4F1093E4020093AB
:1016B000E3020E948A03803209F04DCD82E131CFEE
:1016C000C0E0D0E0019709F064C061E085E00E94CD
:1016D000FE01E0910503F091060382E08083E09132
:1016E0000103F09102031082E0910303F0910403DF
:1016F00080E1808310920D03E0910903F0910A03C9
:1017000086E08083E0910703F09108038081806187
:101710008083E0910703F0910803808188608083D3
:10172000E0910703F0910803808180688083E09155
:101730000703F091080380818F7D808382E395E029
:101740009093E8028093E7028CE890E09093EA029D
:101750008093E9021092F2021092F1021092F002CC
:101760001092EF020E94FB028DE890E09093EE024F
:101770008093ED0289E990E09093EC028093EB0274
:1017800084E08093BA008CE08093B8000E94DB0371
:10179000FDCF2097F1F30E942D018823D1F30E9401
:1017A0000000F7CFA1E21A2EAA1BBB1BFD010DC042
:1017B000AA1FBB1FEE1FFF1FA217B307E407F50701
:1017C00020F0A21BB30BE40BF50B661F771F881FDD
:1017D000991F1A9469F760957095809590959B0173
:1017E000AC01BD01CF010895EE0FFF1F0590F491EC
:1017F000E02D0994F894FFCF0880000000006301F9
:10180000C300F000B5012101FF001301000000003A
:101810004E0343035F0319033C0329031A03415694
:0618200052204953500064
:107E0000112484B714BE81FFF0D085E080938100F7
:107E100082E08093C00088E18093C10086E0809377
:107E2000C20080E18093C4008EE0C9D0259A86E02C
:107E300020E33CEF91E0309385002093840096BBD3
:107E4000B09BFECF1D9AA8958150A9F7CC24DD24C4
:107E500088248394B5E0AB2EA1E19A2EF3E0BF2EE7
:107E6000A2D0813461F49FD0082FAFD0023811F036
:107E7000013811F484E001C083E08DD089C08234E0
:107E800011F484E103C0853419F485E0A6D080C0E4
:107E9000853579F488D0E82EFF2485D0082F10E0AE
:107EA000102F00270E291F29000F111F8ED06801E7
:107EB0006FC0863521F484E090D080E0DECF843638
:107EC00009F040C070D06FD0082F6DD080E0C81688
:107ED00080E7D80618F4F601B7BEE895C0E0D1E017
:107EE00062D089930C17E1F7F0E0CF16F0E7DF06D8
:107EF00018F0F601B7BEE89568D007B600FCFDCFD4
:107F0000A601A0E0B1E02C9130E011968C91119780
:107F100090E0982F8827822B932B1296FA010C0160
:107F200087BEE89511244E5F5F4FF1E0A038BF0790
:107F300051F7F601A7BEE89507B600FCFDCF97BE46
:107F4000E89526C08437B1F42ED02DD0F82E2BD052
:107F50003CD0F601EF2C8F010F5F1F4F84911BD097
:107F6000EA94F801C1F70894C11CD11CFA94CF0C13
:107F7000D11C0EC0853739F428D08EE10CD085E9AC
:107F80000AD08FE07ACF813511F488E018D01DD067
:107F900080E101D065CF982F8091C00085FFFCCF94
:107FA0009093C60008958091C00087FFFCCF809118
:107FB000C00084FD01C0A8958091C6000895E0E648
:107FC000F0E098E1908380830895EDDF803219F02E
:107FD00088E0F5DFFFCF84E1DECF1F93182FE3DFCA
:107FE0001150E9F7F2DF1F91089580E0E8DFEE27F6
:047FF000FF270994CA
:027FFE00040479
:00000001FF
